:020000040800F2
:1000000078BD00205502000889340008EF1500086B
:1000100085340008C10400087D4B00080000000082
:100020000000000000000000000000009D0100082A
:10003000550D000800000000F10100089548000877
:100040006F0200086F0200086F0200086F020008CC
:100050006F0200086F0200086F0200086F020008BC
:100060006F0200086F0200086F0200086F020008AC
:100070006F0200086F0200086F0200086F0200089C
:100080006F0200086F0200086F020008F504000804
:10009000C50400086F0200086F0200086F02000824
:1000A0006F0200080D4900086F0200086F02000887
:1000B00029490008414900086F0200086F02000842
:1000C0006F0200086F0200086F0200086F0200084C
:1000D0006F02000885490008A5490008C5490008C5
:1000E0006F0200086F0200086F0200086F0200082C
:1000F0006F0200086F0200086F0200086F0200081C
:100100006F020008A13800086F0200086F020008A3
:100110006F0200086F0200086F0200086F020008FB
:100120006F0200086F0200086F020008E10A000871
:100130006F0200086F0200086F0200086F020008DB
:100140006F0200086F0200086F0200086F020008CB
:100150006F0200086F0200086F020008E5490008FE
:100160006F0200086F0200086F0200086F020008AB
:100170006F0200086F0200086F0200086F0200089B
:100180006F0200086F020008DFF80CD000F0D6F80C
:1001900000480047A570000878BD00202A4B196868
:1001A0000868B0E8F04F80F30988BFF36F8F4FF015
:1001B000000080F3118870470000000006480068C6
:1001C000006880F3088862B661B6BFF34F8FBFF353
:1001D0006F8F00DF00BF00BF08ED00E0DFF80C000C
:1001E000016841F470010160704700BF88ED00E0D4
:1001F000EFF30980BFF36F8F134B1A681EF0100FD7
:1002000008BF20ED108A20E9F04F106008B44FF0CD
:10021000500080F31188BFF34F8FBFF36F8F08F04A
:100220008BF84FF0000080F3118808BC196808684B
:10023000B0E8F04F1EF0100F08BFB0EC108A80F34A
:100240000988BFF36F8F704730000020EFF30580FF
:10025000704700000648804706480047FEE7FEE773
:10026000FEE7FEE7FEE7FEE7FEE7FEE7FEE7FEE766
:10027000A5480008890100082DE9F05F0546002027
:1002800092469B4688460646814640241BE0284607
:1002900041464746224600F041F853465A46C01AA6
:1002A000914110D311461846224600F028F82D1A25
:1002B00067EB01084F4622460120002100F01FF89D
:1002C00017EB00094E41201EA4F10104DFDC484673
:1002D00031462A464346BDE8F09F40EA01039B07AA
:1002E00003D009E008C9121F08C0042AFAD203E0AB
:1002F00011F8013B00F8013B521EF9D27047202A49
:1003000004DB203A00FA02F1002070479140C2F16C
:10031000200320FA03F3194390407047202A04DB9E
:10032000203A21FA02F00021704721FA02F3D0406E
:10033000C2F120029140084319467047064C074D10
:1003400006E0E06840F0010394E8070098471034A5
:10035000AC42F6D3FFF71CFF70580308905803080F
:100360001CB5012407F0F6FC174804210023802265
:10037000CDE9001015A1184808F0CEFB0446012C69
:1003800003D116A004F0FCFB02E01AA004F0F8FB75
:100390001E48052100238022CDE900101CA11E4823
:1003A00008F0BAFB0446012C03D11CA004F0E8FBC2
:1003B00002E020A004F0E4FB2448006807F026FED9
:1003C00007F00AFD1CBD0000180000204C45445FEA
:1003D0005461736B00000000513400084C45445FC9
:1003E0005461736BC8CECEF1B4B4BDA8B3C9B9A67D
:1003F000210D0A004C45445F5461736BC8CECEF1A9
:10040000B4B4BDA8CAA7B0DC210D0A001C000020AE
:1004100053445F5461736B004545000853445F5477
:1004200061736BC8CECEF1B4B4BDA8B3C9B9A6216F
:100430000D0A000053445F5461736BC8CECEF1B413
:10044000B4BDA8CAA7B0DC210D0A0000140000202A
:100450001CB54FF4407003F067F802F0CFFF00F0D6
:100460007BFC01F09DFA044621460AA004F088FBBB
:100470004FF478400B4908800BA018210B46C82286
:10048000CDE9001032211E2002F058FF08A004F030
:1004900077FB1CBD4C4344204944203D2025780D6A
:1004A0000A000000900000207465737421000000B1
:1004B000496E69742066696E6973680D0A000000F0
:1004C00000BFFEE700B585B00221094800F090F8B2
:1004D00060B10421064800F037F80421044800F018
:1004E00017F86A460021024800F012F905B000BD75
:1004F0000064004010B50121044800F079F818B1FB
:100500000121024800F020F810BD00000064004006
:1005100000220C4B994202D10023836111E0C1F308
:10052000130201F000730BB1C2600AE001F08063B6
:100530000BB1026105E001F000630BB1826000E0E5
:10054000426070477000F030B1F5007F3AD00FDCA8
:10055000202928D006DC01291CD004291DD0082917
:1005600040D11DE0402921D0B1F5807F3AD126E06D
:10057000B1F5004F31D006DCB1F5806F25D0B1F573
:10058000006F2FD124E0B1F5803F12D0B1F5003FCC
:1005900028D111E0154A826025E00822C26022E0DD
:1005A0001022C2601FE0082202611CE010220261DA
:1005B00019E00822426016E01022426013E0042293
:1005C000426010E0042242600DE0042242600AE032
:1005D000002282610422426005E00022826104223E
:1005E000426000E000BF00BF704700000101010051
:1005F00070B504460D46002660692840002871D079
:10060000B5F5807F5CD010DC082D35D006DC012DDF
:1006100020D0022D24D0042D72D127E0102D31D00E
:10062000202D35D0402D6BD138E0B5F5004F60D08E
:1006300009DCB5F5007F49D0B5F5806F4CD0B5F534
:10064000006F5DD14FE0B5F5803F2DD0B5F5003F8F
:1006500056D12FE0A0682D4900F0D2F8064651E0AF
:10066000E068032100F0CCF806464BE0E068082182
:1006700000F0C6F8064645E0E068102100F0C0F83A
:1006800006463FE02069032100F0BAF8064639E04B
:100690002069082100F0B4F8064633E020691021F3
:1006A00000F0AEF806462DE06068082100F0A8F8DA
:1006B000064627E06068102100F0A2F8064621E017
:1006C000A069012100F09CF806461BE0A069022108
:1006D00000F096F8064615E0A069042100F090F8B5
:1006E00006460FE00FE0A069702100F089F8064689
:1006F00008E06068042100F083F8064602E0FFE7A6
:10070000002600BF00E00026304670BD0101010058
:1007100010B500F5D87303EB01131B6803F0040355
:100720001372137A53B900F5D87303EB01131B68E6
:1007300040F2FF7404EA5353136009E000F5D873E4
:1007400003EB01131B686FF0604404EAD3035360AA
:1007500000F5D87303EB01131B6803F00203537217
:1007600000F5D87303EB01135B6803F00F0393727A
:1007700000F5D87303EB01135B681B0AD37400F513
:10078000D87303EB01139B68D37200F5D87303EBA6
:1007900001139B681C0A147300F5D87303EB011353
:1007A0009B681C0C547300F5D87303EB01139B6812
:1007B0001B0E937300F5D87303EB0113DB68D3733F
:1007C00000F5D87303EB0113DB681C0A147400F501
:1007D000D87303EB0113DB681C0C547400F5D87359
:1007E00003EB0113DB681B0E937421B9C36843F05C
:1007F0002003C36003E0036943F02003036110BDDD
:100800000246002002EA01030BB1012000E00020B3
:10081000704770B500254FF4803400E0641E24B1A9
:10082000802003F011F80028F8D014B903252846D9
:1008300070BD40F2FF5002F0C3FF2846F8E7000009
:100840002DE9F041064600274848056801E0474881
:10085000056805F045000028F9D005F0040030B126
:100860000327042002F0ACFF3846BDE8F08105F014
:10087000010028B10127012002F0A2FF3846F4E769
:1008800002F0DCFFB04202D010273846EDE740F21C
:10089000FF5002F095FF002002F0F6FF04463448B6
:1008A000204008B93846E0E704F0004008B11C20B9
:1008B000DBE704F0804008B10920D6E704F00050DF
:1008C00008B10A20D1E704F0805008B10B20CCE732
:1008D00004F0006008B10C20C7E704F0806008B1A4
:1008E0000D20C2E704F0807008B10E20BDE704F4CB
:1008F000000008B10F20B8E704F4800008B1102010
:10090000B3E704F4001008B11120AEE704F480103E
:1009100008B11220A9E704F4002008B11320A4E7CD
:1009200004F4802008B114209FE704F4003008B1DB
:1009300015209AE704F4803008B1162095E704F4F6
:10094000004008B1172090E704F4804008B1182057
:100950008BE704F4005008B1192086E704F0080082
:1009600008B11A2081E738467FE70000342C0140A7
:1009700008E0FFFD70B500251048046801E00F484D
:10098000046804F045000028F9D004F0040028B100
:100990000325042002F014FF284670BD04F0010076
:1009A00028B10125012002F00BFF2846F5E740F2AF
:1009B000FF5002F005FF2846EFE70000342C01400D
:1009C00070B500250B48046801E00A48046804F08B
:1009D00045000028F9D004F0040028B103250420C4
:1009E00002F0EEFE284670BD40F2FF5002F0E8FE35
:1009F0002846F8E7342C01402DE9F04106460F4621
:100A00004FF000082248056801E02148056805F01C
:100A100045000028F9D005F0040038B14FF0030874
:100A2000042002F0CDFE4046BDE8F08105F0010053
:100A300030B14FF00108012002F0C2FE4046F3E75A
:100A400002F0FCFEB04203D04FF010084046EBE746
:100A500040F2FF5002F0B4FE002002F015FF044601
:100A600004F4604018B9200C38804046DCE704F4F8
:100A7000005008B11320D7E704F4804008B11020DB
:100A8000D2E704F4004008B10F20CDE74046CBE7A1
:100A9000342C014070B500264FF480350F480468AF
:100AA00002E06D1E0D48046804F0450008B9002DF1
:100AB000F7D115B104F0040028B10326042002F098
:100AC0007FFE304670BD04F0400028B10026402073
:100AD00002F076FE3046F5E73046F3E7342C01406D
:100AE00010B500BF5021EFF3118081F31188BFF3DF
:100AF0004F8FBFF36F8F00BF044603F0DDFB20462E
:100B000080F3118800BF10BD0246094B9A4201D202
:100B1000084801E00648103801F000531BB1064BAD
:100B20000B40C36002E0044B0B4083607047000041
:100B300010640240006002407D0F7D0F21B1026809
:100B400042F00102026003E0026822F0010202604A
:100B500070470000016821F001010160002101607F
:100B600041608160C1600161212141614A4988423F
:100B700004D13D21484A103A91608CE04649183131
:100B8000884205D14FF47461434A103A916082E083
:100B900041493031884205D14FF474113E4A103A30
:100BA000916078E03C494831884205D14FF074614A
:100BB000394A103A91606EE037496031884204D179
:100BC0003649354A103AD16065E033497831884278
:100BD00004D13349304A103AD1605CE02E4990315B
:100BE000884204D12F492C4A103AD16053E02A4957
:100BF000A831884205D14FF03D51274A103AD160C3
:100C000049E02949884204D13D21274A083A116028
:100C100041E025491831884205D14FF47461224AD8
:100C2000083A116037E020493031884205D14FF44D
:100C300074111D4A083A11602DE01B494831884261
:100C400005D14FF07461184A083A116023E0164943
:100C50006031884204D11149134A121F11601AE011
:100C600011497831884204D10D490F4A121F116091
:100C700011E00D499031884204D10A490A4A121FF5
:100C8000116008E00849A831884204D14FF03D5175
:100C9000054A121F11607047106002403D0000209D
:100CA000400F002000003D201064024021B1026886
:100CB00042F02002026003E0026822F0200202609B
:100CC000704710B501F080034BB122B1436943F086
:100CD0008003436103E0436923F08003436180297B
:100CE0000BD02AB1036801F01E042343036004E023
:100CF000036801F01E04A343036010BD10B5002279
:100D00000268134B1A40CC680B6823434C69234399
:100D10008C692343CC6923430C6A23434C6A2343E5
:100D20008C6A23434C6B23438C6B23431A4302602E
:100D3000426922F00702D1E90B3423431A4342618E
:100D40000B6943604B6883608B68C36010BD000013
:100D50003F801CF07047000000B587B001210846B5
:100D600002F0ECFB0121102002F008FC00208DF8BD
:100D70001A0001208DF81B0002208DF819008DF853
:100D800018000002059005A91B4800F0C5FB0220D1
:100D90008DF818004002059005A9174800F0BCFB2B
:100DA00007220A21144800F0FFFB072209211248FC
:100DB00000F0FAFB4FF4E13001900020ADF808009C
:100DC000ADF80A00ADF80C00ADF810000C20ADF83D
:100DD0000E0001A9094803F063FE02F056FB012250
:100DE00040F22551054803F035FE0121034803F088
:100DF00018FE07B000BD00000000024000100140D6
:100E000051B18200A2F1C042126842F00103820097
:100E1000A2F1C042136009E08200A2F1C042126850
:100E2000034B1A408300A3F1C0431A6070470000CF
:100E3000FEFF0F00D0E901121143C268114302699D
:100E400011434269114382691143C2691143026A25
:100E50001143426A1143826A1143C26A1143026B11
:100E6000114302689200A2F1C04211608168082912
:100E70000BD101688900A1F1C041096841F040022D
:100E800001688900A1F1C0410A60416B0968426BA9
:100E9000526841EA0211426B926841EA0221426BB8
:100EA000928941EA0241426B128A41EA0251426B45
:100EB000127D41EA0261426B926911430268521C41
:100EC0009200A2F1C0421160C16AB1F5804F1BD1FE
:100ED000816B0968826B526841EA0211826B9268E9
:100EE00041EA0221826B128A41EA0251826B127D31
:100EF00041EA0261826B9269114302689200A2F199
:100F0000C042C2F8041107E06FF070420168890026
:100F1000A1F1C041C1F804217047000010B524A020
:100F200003F02EFE01222DA12D4805F09FF82D493A
:100F30000870084600780D2829D12BA003F020FE68
:100F40000022114625A004F04FFD264908700846EE
:100F5000007888B92FA003F013FE01221FA1002002
:100F600005F084F81F49087001221CA11C4805F0F7
:100F70007DF81C4908701AE02E48006880F4007063
:100F80002C4908602CA003F0FBFD00BFFEE71548CC
:100F9000007848B1134801782DA003F0F1FD35A089
:100FA00003F0EEFD00BFFEE73BA003F0E9FD10BD3E
:100FB0000D0A2A2A2A2A2A2A20D5E2CAC7D2BBB871
:100FC000F65344BFA820CEC4BCFECFB5CDB3CAB53E
:100FD000D1E9202A2A2A2A2A2A0D0A00303A0000BA
:100FE0001C950020AC000020A1B75344BFA8BBB99A
:100FF000C3BBD3D0CEC4BCFECFB5CDB3A3ACBCB4C1
:10100000BDABBDF8D0D0B8F1CABDBBAF2E2E2E0DF2
:101010000A000000A1B75344BFA8D2D1B3C9B9A6F2
:10102000B8F1CABDBBAFCEC4BCFECFB5CDB3A1A392
:101030000D0A000014140240A1B6A1B6B8F1CABD51
:10104000BBAFCAA7B0DCA1A3A1B7A1B70D0A00002E
:10105000A3A1A3A15344BFA8B9D2D4D8CEC4BCFE87
:10106000CFB5CDB3CAA7B0DCA1A3282564290D0A4A
:1010700000000000A3A1A3A1BFC9C4DCD4ADD2F27B
:10108000A3BA5344BFA8B3F5CABCBBAFB2BBB3C984
:10109000B9A6A1A30D0A0000A1B7CEC4BCFECFB56E
:1010A000CDB3B9D2D4D8B3C9B9A6A3ACBFC9D2D431
:1010B000BDF8D0D0B6C1D0B4B2E2CAD40D0A000097
:1010C00010B53EA003F05CFD0A2247A14C4805F094
:1010D0000DF84C49087008460078002820D14AA035
:1010E00003F04EFD584B44225849454805F037FA65
:1010F000444908700846007848B95348016854A02C
:1011000003F03EFD51495BA003F03AFD04E03D4889
:10111000017860A003F034FD394804F04EFC08E08B
:101120006248006880F400706049086060A003F0C5
:1011300027FD66A003F024FD01222BA1304804F016
:10114000D5FF3049087008460078002824D1574858
:10115000006880F400705549086066A003F010FD37
:10116000394B4FF480626849254805F082F82549DB
:1011700008700846007848B93348016863A003F056
:10118000FFFC61496AA003F0FBFC0EE01D480178FA
:101190006FA003F0F5FC08E04448006880F400709C
:1011A0004249086070A003F0EBFC154804F005FC10
:1011B000012273A1002004F059FF10BD0D0A2A2A54
:1011C0002A2A2A2A20BCB4BDABBDF8D0D0CEC4BCDC
:1011D000FED0B4C8EBB2E2CAD42E2E2E202A2A2A80
:1011E0002A2A2A0D0A000000303A4661744673B676
:1011F000C1D0B4B2E2CAD4CEC4BCFE2E747874009E
:1012000050A50020AC000020A1B7B4F2BFAA2FB4B3
:10121000B4BDA84661744673B6C1D0B4B2E2CAD4B4
:10122000CEC4BCFE2E747874CEC4BCFEB3C9B9A6BD
:10123000A3ACCFF2CEC4BCFED0B4C8EBCAFDBEDDB9
:10124000A1A30D0A00000000B0000020B40000209F
:10125000A1B7CEC4BCFED0B4C8EBB3C9B9A6A3AC89
:10126000D0B4C8EBD7D6BDDACAFDBEDDA3BA2564BB
:101270000A000000A1B7CFF2CEC4BCFED0B4C8EBC8
:10128000B5C4CAFDBEDDCEAAA3BA0D0A25730D0AE8
:1012900000000000A3A1A3A1CEC4BCFED0B4C8EB43
:1012A000CAA7B0DCA3BA282564290A001414024096
:1012B000A3A1A3A1B4F2BFAA2FB4B4BDA8CEC4BC4D
:1012C000FECAA7B0DCA1A30D0A0000002A2A2A2A20
:1012D0002A2A20BCB4BDABBDF8D0D0CEC4BCFEB66B
:1012E000C1C8A1B2E2CAD42E2E2E202A2A2A2A2A26
:1012F0002A0D0A00A1B7B4F2BFAACEC4BCFEB3C97E
:10130000B9A6A1A30D0A000074B50020A1B7CEC4F0
:10131000BCFEB6C1C8A1B3C9B9A62CB6C1B5BDD76C
:10132000D6BDDACAFDBEDDA3BA25640D0A000000F1
:10133000A1B7B6C1C8A1B5C3B5C4CEC4BCFECAFD71
:10134000BEDDCEAAA3BA0D0A2573200D0A00000047
:10135000A3A1A3A1CEC4BCFEB6C1C8A1CAA7B0DCDC
:10136000A3BA282564290A00A3A1A3A1B4F2BFAAA5
:10137000CEC4BCFECAA7B0DCA1A30D0A00000000C9
:10138000303A00002DE9FC4107460D4600260024B6
:1013900000200090019008205B4908601020486000
:1013A000402088600020C8604FF4806008610846D3
:1013B00002F0B8FA1020FFF743FA044614B12046B1
:1013C000BDE8FC815148008800044F49086037207F
:1013D0004860402088600020C8604FF48060086149
:1013E000084602F09FFA3720FFF72AFA04460CB1AC
:1013F0002046E5E74FF0FF30454908600820486087
:10140000302088600220C860002008610120486107
:10141000084602F0EDF900203B490860332048609F
:10142000402088600020C8604FF480600861084652
:1014300002F078FA3320FFF703FA04460CB1204695
:10144000BEE709E04FF4001002F0FEF920B102F00F
:1014500063FA4DF82600761C2E48006840F22A6197
:1014600008400028EED0082002F0EEF928B108204C
:1014700002F0A6F904242046A2E7022002F0E4F9D3
:1014800028B1022002F09CF90224204698E720208F
:1014900002F0DAF928B1202002F092F90624204661
:1014A0008EE74FF4007002F0CFF930B14FF40070C6
:1014B00002F086F90724204682E740F2FF5002F04E
:1014C0007FF900980006009901F47F4140EA01206D
:1014D000009901F47F0140EA1120009940EA11606F
:1014E000686001980006019901F47F4140EA0120FB
:1014F000019901F47F0140EA1120019940EA11604D
:10150000286020465CE70000F0940020980000204E
:1015100004950020342C0140F0B50A460021002338
:10152000002400BF3DE0012505FA01F3156805EA36
:1015300003049C4234D105684F000326BE40B543E6
:10154000056015794E00B54006683543056015798C
:10155000012D02D01579022D16D185684F00032682
:10156000BE40B543856055794E00B5408668354329
:101570008560456801268E40B5434560456896798B
:101580008E40B6B235434560C5684F000326BE4065
:10159000B543C560D5794E00B540C6683543C560D2
:1015A000491C1029BFD3F0BDF0B5002300244D071E
:1015B000ED0E02FA05F3CE1000F1200555F8265085
:1015C0004E07F70E0F26BE40B543CF1000F12006A0
:1015D00046F82750CE1000F1200555F8265045EA70
:1015E0000304CE1000F1200545F82640F0BD00BFF1
:1015F000FEE7000070B504460026174805884088BD
:1016000045431548808846F60401884216D11248A1
:101610008079012812D100200F4988712A20488141
:101620002B2088810021084601F020FD01200A4975
:1016300088712B2048812A20888103E000210846F8
:1016400001F014FD01F0C6FE002602E0034804800C
:10165000761CAE42FAD370BD3C9400208000006C32
:1016600010B50446002C66D16C498871F0200880C2
:101670004FF4A07048800846808849F24131884282
:101680000BD06648808846F60401884205D063483E
:10169000808845F2103188421AD12C205F49088198
:1016A0002A2048812B2088810846808846F604013C
:1016B000884205D05948808845F21031884206D1C9
:1016C0004FF4A070554908804FF4F0704880A1E0B5
:1016D0005248808845F21051884210D14FF4305062
:1016E0004E4908814FF4285048814FF42C5088818E
:1016F0004FF4F07008804FF4487048808AE0474803
:10170000808841F6631188420DD12C20434908811D
:101710002B2048812A2088814FF4F07008804FF4F4
:101720004870488076E022203C490881202048818A
:10173000212088816EE00120384988714FF4A07023
:101740000880F02048800846808849F2413188426C
:1017500005D03248808845F21031884207D12C20CC
:101760002E4908812A2048812B2088813FE02B4880
:10177000808846F60401884207D12C202749088139
:101780002B2048812A20888131E02448808845F236
:101790001051884210D14FF43050204908814FF445
:1017A000285048814FF42C5088814FF448700880AD
:1017B0004FF4F07048801AE01848808841F66311B1
:1017C00088420DD12C20154908812A2048812B20E0
:1017D00088814FF4487008804FF4F070488006E02C
:1017E00022200E49088121204881202088810B4831
:1017F000808846F60401884205D00848808845F272
:101800001031884206D14FF4F070044908804FF43B
:10181000A0704880002001F0B3FA10BD3C94002075
:1018200070B504460D4616465B48808849F2413142
:10183000884205D05848808845F21031884214D13A
:101840005549488901F0BAFD201201F0ABFDE0B224
:1018500001F0A8FD5049888901F0B0FD281201F07F
:10186000A1FDE8B201F09EFD8CE04B48808845F276
:101870001051884220D14849488901F09FFD20122B
:1018800001F090FD44494989491C88B201F096FD58
:10189000E0B201F087FD4049888901F08FFD2812F0
:1018A00001F080FD3C498989491C88B201F086FD20
:1018B000E8B201F077FD65E03748808841F66311B2
:1018C000884228D13448807920B933480088401EA6
:1018D000001B84B23049488901F070FD201201F0EC
:1018E00061FDE0B201F05EFD201201F05BFDE0B2AF
:1018F00001F058FD2849888901F060FD281201F0A7
:1019000051FDE8B201F04EFD281201F04BFDE8B2A6
:1019100001F048FD36E02048808846F60401884200
:101920001DD11D488079012804D11B480088401E24
:10193000001B84B21849488901F040FD201201F0D3
:1019400031FDE0B201F02EFD1349888901F036FD2A
:10195000281201F027FDE8B201F024FD12E00E4844
:101960008079012804D10C480088401E001B84B2F5
:1019700009494889214601F037FD074988892946E8
:1019800001F032FD04480089044908804FF0D84036
:10199000A0F8806070BD00003C9400207E00006CC8
:1019A00000B5A1B00020209001217A2001F0C6FDF1
:1019B0000121084601F0D2FD4FF400401E900120A5
:1019C0008DF87C0000208DF87E0002208DF87D00CF
:1019D00001208DF87F001EA9FE48FFF79DFD4CF207
:1019E00033701E9002208DF87C0000208DF87E0060
:1019F00003208DF87D0001208DF87F001EA9F64898
:101A0000FFF78AFD4FF680701E9002208DF87C0053
:101A100000208DF87E0003208DF87D0001208DF8D8
:101A20007F001EA9ED48FFF777FD4FF480501E9010
:101A300002208DF87C0000208DF87E0003208DF8B8
:101A40007D0001208DF87F001EA9E548FFF764FDA9
:101A50004FF480501E9002208DF87C0000208DF8FD
:101A60007E0003208DF87D0001208DF87F001EA9E7
:101A7000DC48FFF751FD0C220021D748FFF794FD09
:101A80000C220121D448FFF78FFD0C220421D248FB
:101A9000FFF78AFD0C220521CF48FFF785FD0C22B8
:101AA0000821CD48FFF780FD0C220921CA48FFF725
:101AB0007BFD0C220A21C848FFF776FD0C220E217F
:101AC000C548FFF771FD0C220F21C348FFF76CFDDD
:101AD0000C220721C148FFF767FD0C220821BF48EF
:101AE000FFF762FD0C220921BC48FFF75DFD0C22C7
:101AF0000A21BA48FFF758FD0C220B21B748FFF71F
:101B000053FD0C221146B548FFF74EFD0C220D2166
:101B1000B248FFF749FD0C220E21B048FFF744FD03
:101B20000C220F21AD48FFF73FFD0C221146AC48B7
:101B3000FFF73AFD0C221146AA48FFF735FD0F20AA
:101B40000890002009903C200A9000200B900C90F7
:101B50000D900E9009200190002002900820039023
:101B60000020049005900690079006200F9000201A
:101B70001090119010201290002013901590149046
:101B8000169017904FF480501890002019904FF441
:101B900080401A9000201B9008A81C9001A81D905E
:101BA0000FA8FFF747F901210620FFF729F94CF2AA
:101BB000503001E0411E88B20028FBDC01210020EA
:101BC00001F012FC4CF2503001E0411E88B20028B6
:101BD000FBDC002001F0C6F8834988800846808835
:101BE000FF280ADB084680884FF6FF71884204D040
:101BF0007D488088B0F5134F7ED1D32001F0DEFB05
:101C000001F0A6F87849888001F0A2F8764988802A
:101C100001F09EF874498880084680884FF6FF716D
:101C200001EA00207049888001F092F86E498988A5
:101C300008436D4988800846808849F241318842CE
:101C40005AD0BF2001F0BAFB01F082F866498880C3
:101C500001F07EF86449888001F07AF86249888052
:101C600001F076F860498880084680884FF6FF7159
:101C700001EA00205C49888001F06AF85A498988A5
:101C80000843594988800846808846F604018842FE
:101C90007AD0D42001F092FB01F05AF852498880A2
:101CA00001F056F85049888001F052F84E4988807A
:101CB000084680884FF6FF7101EA00204A49888073
:101CC00001F046F848498988084347498880084612
:101CD000808845F21031884256D04FF45A4001F0C6
:101CE0006DFB01F035F8404988804FF45B4001F00E
:101CF00065FB01F02DF800E046E03B49888008468E
:101D000080884FF6FF7101EA0020374988804FF440
:101D10005C4001F053FB01F01BF83349898808430C
:101D20003149888008468088B0F5004F02D145F2DD
:101D3000105088802C48808845F21051884223D06A
:101D4000A12001F03BFB01F003F82749888000F057
:101D5000FFFF25498880084680884FF6FF7101EA19
:101D600000202149888000F0F3FF1F49898808433B
:101D70001D4988800846808845F26171884203D1F8
:101D800041F66310184988801748808849F241312C
:101D9000884211D01448808845F2103188420BD017
:101DA0001148808845F21051884205D00E4880883D
:101DB00041F6631188422BD10C48006820F00F00D7
:101DC0004FF02041C1F81C010846D0F81C0120F456
:101DD00070600DE000040240000C02400010024060
:101DE00000140240001802403C9400201C0100A096
:101DF000C1F81C010846D0F81C0140F00300C1F8EE
:101E00001C010846D0F81C0140F40070C1F81C0108
:101E1000FE48808845F2105188427DD155214FF40B
:101E2000704001F0E1FAAA214FF2010001F0DCFA62
:101E300052214FF2020001F0D7FA08214FF20300BD
:101E400001F0D2FA01214FF2040001F0CDFA0D2188
:101E50004FF4304001F0C8FA0D214BF2010001F0BF
:101E6000C3FA0D214BF2020001F0BEFA34214FF407
:101E7000364001F0B9FA34214BF2016001F0B4FAB6
:101E800034214BF2026001F0AFFA0D214FF43140E2
:101E900001F0AAFA0D214BF2011001F0A5FA0D2173
:101EA0004BF2021001F0A0FA34214FF4374001F058
:101EB0009BFA34214BF2017001F096FA34214BF277
:101EC000027001F091FA00214FF4324001F08CFAD7
:101ED00000214BF2012001F087FA00214BF2022091
:101EE00001F082FA24214FF4384001F07DFA2421D8
:101EF0004BF6010001F078FA24214BF6020001F0C4
:101F000073FA01214FF43F4001F06EFA0F214FF4B4
:101F1000334001F069FA00E0FDE30F214BF201309C
:101F200001F062FA0F214BF2023001F05DFA342128
:101F30004FF4394001F058FA34214BF6011001F00A
:101F400053FA34214BF6021001F04EFA08214FF4F7
:101F5000354001F049FA08214BF2015001F044FAF2
:101F600008214BF2025001F03FFA03214FF44240A6
:101F700001F03AFA24214FF43A4001F035FA2421D5
:101F80004BF6012001F030FA24214BF6022001F03B
:101F90002BFA00214FF43C4001F026FA78214BF651
:101FA000014001F021FA00214BF6024001F01CFA39
:101FB00000214FF43D4001F017FA78214BF6015013
:101FC00001F012FA00214BF6025001F00DFA002147
:101FD0004FF43E4001F008FA64214BF6016001F035
:101FE00003FA00214FF4514001F0FEF933214DF284
:101FF000011001F0F9F900214DF2021001F0F4F99D
:1020000034214DF2031001F0EFF900214DF20410DC
:1020100001F0EAF93A214DF2051001F0E5F900214D
:102020004DF2061001F0E0F94A214DF2071001F0DF
:10203000DBF900214DF2081001F0D6F95C214DF2D8
:10204000091001F0D1F900214DF20A1001F0CCF98C
:1020500081214DF20B1001F0C7F900214DF20C1057
:1020600001F0C2F9A6214DF20D1001F0BDF90021D9
:102070004DF20E1001F0B8F9E5214DF20F1001F00C
:10208000B3F901214DF2101001F0AEF913214DF218
:10209000111001F0A9F901214DF2121001F0A4F97B
:1020A00054214DF2131001F09FF901214DF214104B
:1020B00001F09AF982214DF2151001F095F90121F4
:1020C0004DF2161001F090F9CA214DF2171001F0EF
:1020D0008BF902214DF2181001F086F900214DF222
:1020E000191001F081F902214DF21A1001F07CF96A
:1020F00001214DF21B1001F077F902214DF21C1065
:1021000001F072F934214DF21D1001F06DF9022138
:102110004DF21E1001F068F967214DF21F1001F019
:1021200063F902214DF2201001F05EF984214DF295
:10213000211001F059F902214DF2221001F054F959
:10214000A4214DF2231001F04FF902214DF2241089
:1021500001F04AF9B7214DF2251001F045F90221AD
:102160004DF2261001F040F9CF214DF2271001F079
:102170003BF902214DF2281001F036F9DE214DF233
:10218000291001F031F902214DF22A1001F02CF949
:10219000F2214DF22B1001F027F902214DF22C1003
:1021A00001F022F9FE214DF22D1001F01DF903215D
:1021B0004DF22E1001F018F910214DF22F1001F000
:1021C00013F903214DF2301001F00EF933214DF2D5
:1021D000311001F009F903214DF2321001F004F938
:1021E0006D214DF2331001F0FFF800214FF4524001
:1021F00001F0FAF833214DF2012001F0F5F8002149
:102200004DF2022001F0F0F8342101E03C9400206E
:102210004DF2032001F0E8F800214DF2042001F016
:10222000E3F83A214DF2052001F0DEF800214DF2ED
:10223000062001F0D9F84A214DF2072001F0D4F828
:1022400000214DF2082001F0CFF85C214DF2092069
:1022500001F0CAF800214DF20A2001F0C5F88121F1
:102260004DF20B2001F0C0F800214DF20C2001F0DE
:10227000BBF8A6214DF20D2001F0B6F800214DF279
:102280000E2001F0B1F8E5214DF20F2001F0ACF87D
:1022900001214DF2102001F0A7F813214DF2112079
:1022A00001F0A2F801214DF2122001F09DF8542115
:1022B0004DF2132001F098F801214DF2142001F0A5
:1022C00093F882214DF2152001F08EF801214DF294
:1022D000162001F089F8CA214DF2172001F084F888
:1022E00002214DF2182001F07FF800214DF2192053
:1022F00001F07AF802214DF21A2001F075F801215F
:102300004DF21B2001F070F802214DF21C2001F06B
:102310006BF834214DF21D2001F066F802214DF2D8
:102320001E2001F061F867214DF21F2001F05CF8DA
:1023300002214DF2202001F057F884214DF2212096
:1023400001F052F802214DF2222001F04DF8A421B3
:102350004DF2232001F048F802214DF2242001F033
:1023600043F8B7214DF2252001F03EF802214DF24D
:10237000262001F039F8CF214DF2272001F034F862
:1023800002214DF2282001F02FF8DE214DF2292004
:1023900001F02AF802214DF22A2001F025F8F2215D
:1023A0004DF22B2001F020F802214DF22C2001F0FB
:1023B0001BF8FE214DF22D2001F016F803214DF2FD
:1023C0002E2001F011F810214DF22F2001F00CF811
:1023D00003214DF2302001F007F833214DF2312076
:1023E00001F002F803214DF2322000F0FDFF6D21D3
:1023F0004DF2332000F0F8FF00214FF4534000F07D
:10240000F3FF33214DF2013000F0EEFF00214DF2D9
:10241000023000F0E9FF34214DF2033000F0E4FF18
:1024200000214DF2043000F0DFFF3A214DF205307B
:1024300000F0DAFF00214DF2063000F0D5FF4A210E
:102440004DF2073000F0D0FF00214DF2083000F0CF
:10245000CBFF5C214DF2093000F0C6FF00214DF2A8
:102460000A3000F0C1FF81214DF20B3000F0BCFFBB
:1024700000214DF20C3000F0B7FFA6214DF20D30D7
:1024800000F0B2FF00214DF20E3000F0ADFFE5216B
:102490004DF20F3000F0A8FF01214DF2103000F096
:1024A000A3FF13214DF2113000F09EFF01214DF2E8
:1024B000123000F099FF54214DF2133000F094FFD8
:1024C00001214DF2143000F08FFF82214DF21530C2
:1024D00000F08AFF01214DF2163000F085FFCA217D
:1024E0004DF2173000F080FF02214DF2183000F05D
:1024F0007BFF00214DF2193000F076FF02214DF2F2
:102500001A3000F071FF01214DF21B3000F06CFF1A
:1025100002214DF21C3000F067FF34214DF21D30D6
:1025200000F062FF02214DF21E3000F05DFF6721D6
:102530004DF21F3000F058FF02214DF2203000F024
:1025400053FF84214DF2213000F04EFF02214DF265
:10255000223000F049FFA4214DF2233000F044FF67
:1025600002214DF2243000F03FFFB7214DF225301B
:1025700000F03AFF02214DF2263000F035FFCF2166
:102580004DF2273000F030FF02214DF2283000F0EC
:102590002BFFDE214DF2293000F026FF02214DF203
:1025A0002A3000F021FFF2214DF22B3000F01CFF09
:1025B00002214DF22C3000F017FFFE214DF22D309C
:1025C00000F012FF03214DF22E3000F00DFF10211C
:1025D0004DF22F3000F008FF03214DF2303000F0B3
:1025E00003FF33214DF2313000F0FEFE03214DF2A6
:1025F000323000F0F9FE6D214DF2333000F0F4FE80
:1026000000214FF4544000F0EFFE33214DF2014021
:1026100000F0EAFE00214DF2024000F0E5FE342118
:102620004DF2034000F0E0FE00214DF2044000F0C6
:10263000DBFE3A214DF2054000F0D6FE00214DF2BE
:10264000064000F0D1FE4A214DF2074000F0CCFEDA
:1026500000214DF2084000F0C7FE5C214DF2094018
:1026600000F0C2FE00214DF20A4000F0BDFE8121C3
:102670004DF20B4000F0B8FE00214DF20C4000F08E
:10268000B3FEA6214DF20D4000F0AEFE00214DF24A
:102690000E4000F0A9FEE5214DF20F4000F0A4FE2F
:1026A00001214DF2104000F09FFE13214DF2114028
:1026B00000F09AFE01214DF2124000F095FE5421E7
:1026C0004DF2134000F090FE01214DF2144000F055
:1026D0008BFE82214DF2154000F086FE01214DF265
:1026E000164000F081FECA214DF2174000F07CFE3A
:1026F00002214DF2184000F077FE00214DF2194002
:1027000000F072FE02214DF21A4000F06DFE012130
:102710004DF21B4000E008E300F066FE02214DF29E
:102720001C4000F061FE34214DF21D4000F05CFEC3
:1027300002214DF21E4000F057FE67214DF21F406E
:1027400000F052FE02214DF2204000F04DFE8421A7
:102750004DF2214000F048FE02214DF2224000F0EF
:1027600043FEA4214DF2234000F03EFE02214DF233
:10277000244000F039FEB7214DF2254000F034FE30
:1027800002214DF2264000F02FFECF214DF22740CE
:1027900000F02AFE02214DF2284000F025FEDE2145
:1027A0004DF2294000F020FE02214DF22A4000F0B7
:1027B0001BFEF2214DF22B4000F016FE02214DF2DD
:1027C0002C4000F011FEFE214DF22D4000F00CFED9
:1027D00003214DF22E4000F007FE10214DF22F4054
:1027E00000F002FE03214DF2304000F0FDFD3321E8
:1027F0004DF2314000F0F8FD03214DF2324000F07F
:10280000F3FD6D214DF2334000F0EEFD00214FF459
:10281000554000F0E9FD33214DF2015000F0E4FD98
:1028200000214DF2025000F0DFFD34214DF2035043
:1028300000F0DAFD00214DF2045000F0D5FD3A2100
:102840004DF2055000F0D0FD00214DF2065000F091
:10285000CBFD4A214DF2075000F0C6FD00214DF29C
:10286000085000F0C1FD5C214DF2095000F0BCFDA4
:1028700000214DF20A5000F0B7FD81214DF20B50BE
:1028800000F0B2FD00214DF20C5000F0ADFDA6218C
:102890004DF20D5000F0A8FD00214DF20E5000F059
:1028A000A3FDE5214DF20F5000F09EFD01214DF2F8
:1028B000105000F099FD13214DF2115000F094FDDD
:1028C00001214DF2125000F08FFD54214DF21350B2
:1028D00000F08AFD01214DF2145000F085FD8221A7
:1028E0004DF2155000F080FD01214DF2165000F020
:1028F0007BFDCA214DF2175000F076FD02214DF20A
:10290000185000F071FD00214DF2195000F06CFDDF
:1029100002214DF21A5000F067FD01214DF21B50CB
:1029200000F062FD02214DF21C5000F05DFD3421EB
:102930004DF21D5000F058FD02214DF21E5000F0E6
:1029400053FD67214DF21F5000F04EFD02214DF264
:10295000205000F049FD84214DF2215000F044FD4B
:1029600002214DF2225000F03FFDA4214DF22350F0
:1029700000F03AFD02214DF2245000F035FDB72160
:102980004DF2255000F030FD02214DF2265000F0AE
:102990002BFDCF214DF2275000F026FD02214DF2F4
:1029A000285000F021FDDE214DF2295000F01CFDE1
:1029B00002214DF22A5000F017FDF2214DF22B506A
:1029C00000F012FD02214DF22C5000F00DFDFE2111
:1029D0004DF22D5000F008FD03214DF22E5000F075
:1029E00003FD10214DF22F5000F0FEFC03214DF2AB
:1029F000305000F0F9FC33214DF2315000F0F4FC7E
:102A000003214DF2325000F0EFFC6D214DF23350B6
:102A100000F0EAFC00214FF4564000F0E5FC3321C1
:102A20004DF2016000F0E0FC00214DF2026000F088
:102A3000DBFC34214DF2036000F0D6FC00214DF2A6
:102A4000046000F0D1FC3A214DF2056000F0CCFCAE
:102A500000214DF2066000F0C7FC4A214DF20760EC
:102A600000F0C2FC00214DF2086000F0BDFC5C21CA
:102A70004DF2096000F0B8FC00214DF20A6000F050
:102A8000B3FC81214DF20B6000F0AEFC00214DF251
:102A90000C6000F0A9FCA6214DF20D6000F0A4FC32
:102AA00000214DF20E6000F09FFCE5214DF20F6019
:102AB00000F09AFC01214DF2106000F095FC13210A
:102AC0004DF2116000F090FC01214DF2126000F017
:102AD0008BFC54214DF2136000F086FC01214DF275
:102AE000146000F081FC82214DF2156000F07CFC46
:102AF00001214DF2166000F077FCCA214DF21760FB
:102B000000F072FC02214DF2186000F06DFC002113
:102B10004DF2196000F068FC02214DF21A6000F0DD
:102B200063FC01214DF21B6000F05EFC02214DF2BE
:102B30001C6000F059FC34214DF21D6000F054FC83
:102B400002214DF21E6000F04FFC67214DF21F6024
:102B500000F04AFC02214DF2206000F045FC842187
:102B60004DF2216000F040FC02214DF2226000F0A5
:102B70003BFCA4214DF2236000F036FC02214DF213
:102B8000246000F031FCB7214DF2256000F02CFCF0
:102B900002214DF2266000F027FCCF214DF2276084
:102BA00000F022FC02214DF2286000F01DFCDE2125
:102BB0004DF2296000F018FC02214DF22A6000F06D
:102BC00013FCF2214DF22B6000F00EFC02214DF2BD
:102BD0002C6000F009FCFE214DF22D6000F004FC99
:102BE00003214DF22E6000F0FFFB10214DF22F600B
:102BF00000F0FAFB03214DF2306000F0F5FB3321C9
:102C00004DF2316000F0F0FB03214DF2326000F034
:102C1000EBFB6D214DF2336000F0E6FB55214FF4E4
:102C2000704000F0E1FBAA214FF2010000F0DCFB54
:102C300052214FF2020000F0D7FB08214FF20300AF
:102C400000F0D2FB00214FF2040000F0CDFBCC21BC
:102C50004FF4314000F0C8FB00214BF2011000F0AE
:102C6000C3FB05214FF4364000F0BEFB70214FF44A
:102C7000374000F0B9FB70214BF2017000F0B4FB5B
:102C800001214FF4384000F0AFFB03214BF6010067
:102C900000F0AAFB03214BF6020000F0A5FB032184
:102CA0004BF6030000F0A0FB02214FF43C4000F083
:102CB0009BFB00214BF6014000F096FB00214BF6F8
:102CC000024000F091FBD0214FF4494000F08CFB12
:102CD00002214CF6011000F087FB50214CF6021047
:102CE00000F082FB50214CF6031000F07DFB5021D8
:102CF0004CF6041000F078FB00214FF4545000F023
:102D000073FB55214FF4685000F06EFB4FF4885070
:102D100000F054FB42F6E06001E0411E88B200285A
:102D2000FBDC4FF4245000F049FB0020FEF798FC38
:102D30000120054908604FF6FF70FEF75BFC034871
:102D4000808821B000BD0000BC8240423C9400203D
:102D500008B5034800880090BDF8000008BD0000D9
:102D60008000006C10B502460A24104600F026FBD5
:102D700000BF201EA4F10104FBD1FFF7E9FF10BD45
:102D8000F0B5054600240027B748807901280BD10B
:102D9000B548808846F60401884205D0B24880884C
:102DA00041F66311884208D1AF488079F0B9AE4846
:102DB000808841F66311884218D1082D15D2DFE8CA
:102DC00005F00406080A0C0E101206250DE0072572
:102DD0000BE0042509E0052507E0012505E00025B5
:102DE00003E0032501E0022500BF00BF9E48808864
:102DF00049F24131884217D09B48808846F6040149
:102E0000884211D09848808845F2103188420BD012
:102E10009548808845F21051884205D092488088B4
:102E200041F6631188427DD1082D1CD2DFE805F000
:102E30000406090C0F12151800BF14E044F08004BA
:102E400011E044F040040EE044F0C0040BE044F014
:102E5000200408E044F0600405E044F0A00402E02F
:102E600044F0E00400BF00BF7F48808845F2105165
:102E7000884202D14FF4585700E036277A488088BC
:102E800045F2103188420DD07748808845F21051C4
:102E9000884207D07448808841F66311884201D087
:102EA00044F008047048808846F60401884201D145
:102EB00044F002042146384600F096FA6A488088B9
:102EC00041F6631188421DD004F0200068B16648C5
:102ED000008865494988884214DA63480688408832
:102EE00061490880084646800CE05F4800885E49DA
:102EF0004988884206DD5C48068840885A4908802F
:102F0000084646805848808845F21051884254D17E
:102F10005549488900F052FA002000F043FA52491E
:102F2000498900E078E0491C88B200F047FA0020A7
:102F300000F038FA4C494989891C88B200F03EFA01
:102F400049490988491EC1F30F2000F02BFA464970
:102F50004989C91C88B200F031FA43490978491EF1
:102F6000C8B200F01FFA4049888900F027FA002013
:102F700000F018FA3C498989491C88B200F01EFA11
:102F8000002000F00FFA38498989891C88B200F0C6
:102F900015FA35494988491EC1F30F2000F002FA9D
:102FA00031498989C91C88B200F008FA2E4989780C
:102FB000491EC8B200F0F6F955E02B49488900F0E7
:102FC000FDF9002000F0EEF9002000F0EBF92649B1
:102FD0000988491EC1F30F2000F0E4F9224909785D
:102FE000491EC8B200F0DEF91F49888900F0E6F9F1
:102FF000002000F0D7F9002000F0D4F91A494988E0
:10300000491EC1F30F2000F0CDF917498978491EF8
:10301000C8B200F0C7F926E0082D1CD2DFE805F0A1
:1030200004070A0D0F12151844F0300413E044F0A1
:10303000100410E044F020040DE000BF0BE044F069
:10304000380408E044F0280405E044F0180402E0E5
:1030500044F0080400BF00BF032744F48054214615
:10306000384600F0C1F9F0BD3C94002030B504466C
:103070000D466748808849F24131884205D064484E
:10308000808845F21031884214D16149488900F0A6
:1030900095F9201200F086F9E0B200F083F95C495E
:1030A000888900F08BF9281200F07CF9E8B200F072
:1030B00079F9ABE05648808846F6040188421DD174
:1030C00053488079012804D151480088401E001BD4
:1030D00084B24F49488900F071F9201200F062F97A
:1030E000E0B200F05FF94A49888900F067F92812D8
:1030F00000F058F9E8B200F055F987E044488088BC
:1031000041F66311884247D141488079A8B94048C7
:103110000088401E001B84B23D49488900F04EF9EA
:10312000002000F03FF9002000F03CF9201200F0F0
:1031300039F9E0B200F036F916E03549488900F077
:103140003DF9201200F02EF9E0B200F02BF93049E1
:103150000988491EC1F30F2000F024F92C49097891
:10316000491EC8B200F01EF92949888900F026F9E5
:10317000281200F017F9E8B200F014F92449498840
:10318000491EC1F30F2000F00DF921498978491E2D
:10319000C8B200F007F939E01D48808845F21051A7
:1031A000884220D11A49488900F008F9201200F01D
:1031B000F9F817494989491C88B200F0FFF8E0B2D4
:1031C00000F0F0F81249888900F0F8F8281200F0B1
:1031D000E9F80F498989491C88B200F0EFF8E8B294
:1031E00000F0E0F812E00A488079012804D108488C
:1031F0000088401E001B84B205494889214600F022
:10320000F3F803498889294600F0EEF830BD000044
:103210003C9400202DE9F84F80460E4617461C4688
:10322000B3462046E31704EB5373DB1021464FEA05
:10323000E47C04EB5C7C4FEAEC0CA4EBCC0CBCF122
:10324000000F02D04FF0010C01E04FF0000C63447E
:10325000224604EBD27C4FEA6C0C03FB0CF3DBB28E
:103260000093A7F12000C7B2002556E00C2C07D12F
:1032700007EB47002B4901EB800010F8059013E0A5
:10328000102C05D1284800EB071010F805900BE032
:10329000182C07D107EBC700244901EB800010F878
:1032A000059001E0BDE8F88F4FF0000A2FE009F02B
:1032B000800030B11E48028831464046FEF7B0FA21
:1032C00007E00A9828B91B48028831464046FEF7B5
:1032D000A7FA4FEA49604FEA1069701C86B2164897
:1032E0004088B04200DCDDE7A6EB0B00A0420AD12B
:1032F0005E4608F101001FFA80F80F48008840453B
:1033000000DCCFE706E00AF1010000F0FF0ABAF1A5
:10331000080FCCDB00BF681CC5B200988542A5DB56
:1033200000BFBFE7B48F000828940008189A00086F
:1033300090000020920000203C9400202DE9F847E6
:1033400004460D4690469946DDE9096704F0FF0AF8
:1033500008EB04001FFA80F809EB05001FFA80F95A
:1033600016E0444502DB5446A81985B24D4500DB02
:1033700014E0002000903A78334629462046FFF7B3
:1033800049FF304606EBD07104EB61018CB27F1C23
:1033900038787E2802DC38782028E2DA00BFBDE8E1
:1033A000F887000001B5BDF800000090BDF80000EE
:1033B0000149088008BD00008000006C01B5BDF81F
:1033C00000000090BDF800000149088008BD000021
:1033D0007E00006C024800890249088070470000A6
:1033E0003C9400207E00006C034A10804FF0D842CD
:1033F000A2F88010704700007E00006C1CB501210F
:10340000202000F09BF84FF40070009001208DF810
:10341000040000208DF8060001208DF80700002030
:103420008DF8050069460948FEF776F84FF480608C
:10343000009069460548FEF76FF84FF400700349A5
:103440001A310880400008801CBD000000140240B2
:10345000FDF764FDFDF734FE10E04FF400700849FD
:1034600008804FF4FA7004F095FD4FF400700449A1
:10347000891E08804FF4FA7004F08CFDEDE700001F
:103480001A14024000BFFEE7704708B54FF4A06071
:1034900000F04AF825208DF8000001208DF8010089
:1034A0008DF802008DF80300684600F001F808BDB1
:1034B00070B5002100230F22C4781CB3174C246878
:1034C00004F4E064C4F5E064C4F30721C1F104042A
:1034D000E3B20A4144789C40E1B28478144021432D
:1034E0000C07210E0E4C05786155047804F01F0579
:1034F0000124AC4005786D11AD0005F1E025C5F85B
:10350000004109E0047804F01F050124AC40054D9A
:103510000678761145F8264070BD00000CED00E0FD
:1035200000E400E080E100E002490143024A11604A
:10353000704700000000FA050CED00E029B1064AD2
:1035400012680243044B1A6004E0034A1268824383
:10355000014B1A60704700003038024029B1064A1A
:1035600012680243044B1A6004E0034A1268824363
:10357000014B1A60704700003838024029B1064AF2
:1035800012680243044B1A6004E0034A1268824343
:10359000014B1A60704700004438024029B1064AC6
:1035A00012680243044B1A6004E0034A1268824323
:1035B000014B1A607047000024380240F0B500212A
:1035C00000220024022500260223324F3F6807F024
:1035D0000C0121B1042905D0082937D105E02E4F6F
:1035E000076036E02D4F076033E02A4F3F1F3F68EA
:1035F000C7F38056274F3F1F3F6807F03F036EB168
:10360000264FB7FBF3F7DFF88CC0ACF1040CDCF805
:1036100000C0CCF3881C07FB0CF40CE01E4FB7FB7A
:10362000F3F7DFF870C0ACF1040CDCF800C0CCF3A9
:10363000881C07FB0CF4174F3F1F3F68C7F3014777
:103640007F1C7D00B4FBF5F7076002E0124F0760B6
:1036500000BF00BF0F4F3F6807F0F0010909104F8E
:103660007A5C0768D74047600A4F3F6807F4E0512B
:10367000890A0B4F7A5C4768D7408760054F3F68DF
:1036800007F46041490B064F7A5C4768D740C76032
:10369000F0BD0000083802400024F40000127A0057
:1036A000200000207CB505460024002000900190F9
:1036B00000F0EAF800F0007010B10E2420467CBD46
:1036C0003D49098888B26946FDF75CFE04460CB1A5
:1036D0002046F4E7012D36D1019800F4802000281F
:1036E0002ED03548008800043449086037204860EF
:1036F000402088600020C860A8020861084600F0E9
:1037000011F93720FDF79CF804460CB12046D6E7A6
:1037100002202A4908600620486040208860002076
:10372000C8604FF480600861084600F0FBF806208E
:10373000FDF786F804460CB12046C0E72046BEE7F8
:1037400025242046BBE7019800F4803078B31A485E
:1037500000880004194908603720486040208860CC
:103760000020C8604FF480600861084600F0DAF875
:103770003720FDF765F804460CB120469FE700208E
:103780000E49086006204860402088600020C8601C
:103790004FF480600861084600F0C4F80620FDF789
:1037A0004FF804460CB1204689E7204687E7FFE73B
:1037B0002524204683E7000098000020F094002094
:1037C0000149086070470000382C01400149086039
:1037D00070470000382C0140014908607047000024
:1037E000A080254201490860704700008C85254271
:1037F00000210B4B02681A601B1D42681A601A1DDB
:10380000116821F0F701D0E902231A4303691A4332
:1038100043691A431143024A08321160704700009D
:10382000242C014010B50121C802FFF7B7FE00218A
:103830004FF40060FFF7B2FE10BD000001480068C1
:10384000C0B27047102C014001460020034A1268A4
:103850000A400AB1012000E000207047342C0140EA
:1038600001460020034A12680A400AB1012000E024
:1038700000207047342C01400248006800F003002B
:1038800070470000002C014008B501460020009060
:103890000248084400900098006808BD142C0140BC
:1038A00010B500BF5021EFF3118081F31188BFF3F1
:1038B0004F8FBFF36F8F00BF044600F011FD20460D
:1038C00080F3118800BF10BD29B1064A1268024377
:1038D000044B1A6004E0034A12688243014B1A60E9
:1038E000704700003C2C014000210A4A116847F64D
:1038F000FF629143027D83681A4343681A43C36899
:103900001A4303681A4303691A431143014A1160B9
:1039100070470000042C0140014800687047000017
:10392000802C01400021094B02681A601A1D1168A1
:103930006FF30A01D0E901231A43C3681A430369EC
:103940001A431143014A121D11607047082C0140AF
:103950000149086070470000002C014008B50120B3
:1039600000909DF8000008BD70B504460025204871
:103970000068032802D12725284670BD1C4800682E
:1039800038B11B480068012803D019480068022894
:103990002CD1B4F5805F02D127252846EDE7B4F598
:1039A000006F13D10120FFF77DFE0546F5B9002019
:1039B000104908750860486088604FF40060C8606E
:1039C000002008610846FFF78FFF0FE00020FFF797
:1039D00069FE054655B9002006490875086048602B
:1039E0008860C86008610846FFF77EFF2846C4E784
:1039F00094000020D8940020F0B501460020002259
:103A0000C04B1B7881F85630BF4B1B88A1F854304F
:103A1000BE4B1B681A0E93090B70C2F383034B70E5
:103A200002F003038B70B94B1B68C3F30742CA70E3
:103A3000B64B1B88C3F307220A71B44B1A784A713C
:103A40005B681A0E1301CB80B04B5B68C3F307426F
:103A5000CB8843EA1213CB8002F00F030B72AB4BFF
:103A60009B88C3F30722D3094B72C2F380138B7276
:103A7000C2F34013CB72C2F300130B7300234B73DA
:103A8000A04B1B681BB19F4B1B68012B4FD19307A9
:103A90001B0D0B619D4B1A790B6943EA82030B6185
:103AA0009A4B9B681A0E0B6943EA92130B61C2F39F
:103AB000C2030B7502F007034B75944B9B68C3F36D
:103AC000074253098B75C2F38203CB7593075B0FD3
:103AD0000B768E4B1B89C3F307220B7E43EAD2136E
:103AE0000B760B695B1C0024C1E912340B7ED1E913
:103AF00012469B1C012505FA03F3DF17A4FB035CA8
:103B000006FB03C304FB0733C1E912530C7A0123FC
:103B1000A3400B650027D1E912560B6DA5FB034CA2
:103B200006FB03C305FB0733C1E9124336E0754BBF
:103B30001B68022B32D1754B1A7993069B0A0B61D5
:103B4000724B9B681A0E0B6943EA02230B616F4BA1
:103B50009B68C3F307420B6913430B616B4B1B89D3
:103B6000C3F307220B6900245B1C44EB04074FF4EA
:103B700000760025A3FB064C07FB06C603FB056683
:103B80004FF480650027A4FB053C06FB05C504FB3C
:103B90000754C1E912344FF400730B65C2F380136C
:103BA00001F8193F93065B0E4B70584B1A7A4B780D
:103BB00043EAD2134B7002F07F038B70534BDB68E8
:103BC0001A0ED309CB70C2F341130B71C2F38203F7
:103BD0004B7193071B0F8B714C4BDB68C3F3074290
:103BE0008B7943EA92138B71C2F34013CB7100239C
:103BF0000B7202F001034B72444B9B89C3F3072203
:103C0000D3098B72C2F38013CB72C2F340130B73D0
:103C1000C2F300134B73C2F381038B7302F00303EF
:103C2000CB733A4B1A7B53080B7401234B74384BFC
:103C30001B681A0ECA741939354B1B68C3F3074247
:103C40001402CC85324B1B88C3F30722CB8D134360
:103C5000CB852F4B1A7814060C635B681A0E0B6B1E
:103C600043EA02440C632A4B5B68C3F307420B6BC5
:103C700043EA02240C63264B9B88C3F307220B6B99
:103C800013430B63224B1A7934235A54204B9B68FD
:103C90001A0E35235A541E4B9B68C3F30742140671
:103CA0008C631B4B1B89C3F307228B6B43EA0244D3
:103CB0008C63174B1A7A8B6B43EA02248C63144B88
:103CC000DB681A0E8B6B13438B63114BDB68C3F3FA
:103CD00007423C235B5C43EA12143C235C54130709
:103CE0001C0DCC870A4B9B89C3F30722CB8F134350
:103CF000CB87074B1A7B540840235C540124412393
:103D00005C54F0BD940000209800002050940020E6
:103D10006094002008B500200090FFF71FFE0128E6
:103D200009D1684600F0CAFB08B1FF2008BD009821
:103D3000C0F34320FAE7FF20F8E710B50424FFF7AB
:103D4000E9FF0446042C01D1002010BDFF2C01D155
:103D50000220FAE70120F8E71CB5002001904FF49B
:103D60004070FFF7E1FB31208DF8000006208DF850
:103D7000010000208DF8020001208DF80300684644
:103D8000FFF796FB3B208DF8000005208DF8010021
:103D90006846FFF78DFB00F06DF9FFF743FD00F07B
:103DA000BBF901909DF8040010B19DF804001CBD02
:103DB00000F032F801909DF8040010B19DF8040065
:103DC000F5E7002012490875086048608860C860FF
:103DD00008610846FFF788FD0E48FFF70DFE0190C9
:103DE0009DF8040040B90B48B0F854000204104696
:103DF000002100F047FB01909DF8040020B94FF42A
:103E00000060FFF7B1FD01909DF80400CFE70000CE
:103E1000D89400208094002038B500240120009020
:103E2000FFF72AFD10B92524204638BD4448006814
:103E3000042828D000204349086002204860C020A0
:103E400088600020C8604FF4806008610846FFF772
:103E500069FDFCF78FFD04460CB12046E5E7002024
:103E6000FFF712FD384908600420FFF70DFD3649C1
:103E700048600820FFF708FD334988600C20FFF7F1
:103E800003FD3149C8602E48006858B12C480068CD
:103E9000012807D02A480068062803D0284800686F
:103EA000022816D1002027490860032048604020DE
:103EB00088600020C8604FF4806008610846FFF702
:103EC00031FD69460320FCF797FD04460CB12046FE
:103ED000ABE71B48006804282ED0BDF800001B4942
:103EE0000860BDF800000004164908600920486019
:103EF000C02088600020C8604FF4806008610846D8
:103F0000FFF710FDFCF736FD04460CB120468CE7A8
:103F10000020FFF7B9FC0E4908600420FFF7B4FC4D
:103F20000B4948600820FFF7AFFC094988600C2066
:103F3000FFF7AAFC0649C8600024204675E7000088
:103F400094000020F094002060940020980000204D
:103F50005094002030B58FB004460D464FF0FA5112
:103F60001E48FCF7D1FD00211C48FCF7E7FD1B486B
:103F7000FCF7F0FD4FF000600090194801900294AA
:103F80000020039001200490002005904FF48060F1
:103F900006908000079080000890002009904FF460
:103FA00040300A9004200B9003200C904FF4000046
:103FB0000D9080100E9069460848FCF79FFE012284
:103FC00010210648FCF77DFE20210448FCF76EFE18
:103FD00001210248FCF7B2FD0FB030BD5864024029
:103FE000802C014030B58FB004460D464FF0FA5199
:103FF0001E48FCF789FD00211C48FCF79FFD1B486B
:10400000FCF7A8FD4FF00060009019480190029461
:104010004020039001200490002005904FF4806020
:1040200006908000079080000890002009904FF4CF
:1040300040300A9004200B9003200C904FF40000B5
:104040000D9080100E9069460848FCF757FE01223B
:1040500010210648FCF735FE20210448FCF726FE17
:1040600001210248FCF76AFD0FB030BD58640240E0
:10407000802C01401CB501210C20FFF75FFA0C22B7
:1040800008212348FDF790FA0C2209212048FDF76A
:104090008BFA0C220A211E48FDF786FA0C220B210E
:1040A0001B48FDF781FA0C2211461948FDF77CFAEE
:1040B0000C2202211748FDF777FA4FF47060009048
:1040C00002208DF805008DF8040000208DF8060010
:1040D00001208DF8070069460D48FDF71DFA042000
:1040E000009069460B48FDF717FA4FF48050009096
:1040F00000208DF8070069460548FDF70DFA0121FB
:10410000C802FFF73BFA01218805FFF717FA1CBD2B
:1041100000080240000C0240F8B500200090002585
:1041200000240026002776205F49087500200860DB
:1041300048608860C86008610846FFF7D5FB032027
:10414000FFF706FC0120FFF747FB002057490860F6
:1041500048608860C8604FF4806008610846FFF7D7
:10416000E1FBFCF756FB00909DF8000010B19DF8B4
:104170000000F8BD4FF4D5704C4908600820486035
:10418000402088600020C8604FF4806008610846C5
:10419000FFF7C8FBFCF77EFC00909DF8000020B9FB
:1041A000012043490860870712E000203F4908606A
:1041B00037204860402088600020C8604FF480604D
:1041C00008610846FFF7AEFB3720FCF739FB00908B
:1041D0000020364908603720486040208860002071
:1041E000C8604FF4806008610846FFF79BFB3720EA
:1041F000FCF726FB00909DF80000002851D13BE021
:1042000000202A490860372048604020886000204C
:10421000C8604FF4806008610846FFF783FB3720D1
:10422000FCF70EFB00909DF8000010B19DF8000017
:104230009FE7204838431D490860292048604020F6
:1042400088600020C8604FF4806008610846FFF76E
:1042500069FBFCF7B5FB00909DF8000010B19DF8DC
:10426000000086E70020FFF70FFB0546012080EAEB
:10427000D57080F00106641C1EB94FF6FF708442B1
:10428000BED34FF6FF70844204D31B2000909DF8EC
:1042900000006EE705F08040051E02D002200449B0
:1042A00008609DF8000064E7D8940020F094002096
:1042B000940000200000108010B50748006800F04E
:1042C000C05040B10120054908604FF0C25102487A
:1042D0005830FCF719FC10BD00640240A800002013
:1042E00010B54FF48070FFF7BBFA50B1002025499C
:1042F00008704FF48070FFF769FA012022490860C6
:1043000037E00220FFF7ACFA30B10220FFF75EFA87
:1043100002201C4908702CE00820FFF7A1FA30B1F8
:104320000820FFF753FA04201649087021E02020E6
:10433000FFF796FA30B12020FFF748FA062011491E
:10434000087016E01020FFF78BFA30B11020FFF74D
:104350003DFA05200B4908700BE04FF40070FFF7A1
:104360007FFA30B14FF40070FFF730FA07200549AB
:10437000087000214CF23A30FFF7A6FA01480078A5
:1043800010BD0000A0000020A40000202DE9F0478F
:10439000814614461D46DDE90868002700203249A1
:1043A0000870324908600120314908600020314915
:1043B0000860012140F22A30FFF786FA08FB06F177
:1043C0004846FFF7C7FD0120FFF70CFA2A480068AE
:1043D000022808D106020202002320462946FBF7E4
:1043E0004BFF04460D4625480660102023494860CF
:1043F000402088600020C8604FF480600861084653
:10440000FFF790FA1020FCF71BFA074617B1384661
:10441000BDE8F0874FF0FF301949086008FB06F04F
:104420004860902088600220C86000200861012058
:1044300048610846FFF7DCF91048046012200F4974
:104440004860402088600020C8604FF480600861A8
:104450000846FFF767FA1220FCF7F2F907460FB19A
:104460003846D5E73846D3E7A0000020A400002056
:104470009C0000202C2C014094000020F09400208F
:104480000495002070B504460D4600260A480460D5
:10449000072009494860402088600020C8604FF428
:1044A000806008610846FFF73DFA0720FCF7C8F96D
:1044B0000646304670BD0000F094002070B50446FA
:1044C000002514B92625284670BD0F480088000431
:1044D0000E4908600D204860402088600020C860B8
:1044E0004FF4806008610846FFF71CFA0D20FCF7C6
:1044F000A7F905460DB12846E6E70020FFF7C4F905
:1045000020602846E0E7000098000020F09400209A
:1045100010B5002400200A4908600C2048604020A3
:1045200088600020C8604FF4806008610846FFF78B
:10453000F9F90C20FCF784F90446204610BD000070
:10454000F094002003E044F6206003F023FDFAE736
:1045500070B500256C1E00E0641E1848006838B96C
:104560001748006820B91748007808B9002CF3D123
:10457000002012490860441E00E0641E12480068D2
:1045800000F4005008B1002CF7D110480068012851
:1045900005D1FFF7BDFF054600200C4908600CB9A6
:1045A00005B9042540F2FF50FFF70AF905480078E5
:1045B00010B10448007870BD2846FCE7A800002030
:1045C000A4000020A0000020342C01409C0000200A
:1045D00070B500256C1E00E0641E1848006838B9EC
:1045E0001748006820B91748007808B9002CF3D1A3
:1045F000002012490860441E00E0641E1248006852
:1046000000F4805008B1002CF7D110480068012850
:1046100005D1FFF77DFF054600200C4908600CB965
:1046200005B9042540F2FF50FFF7CAF805480078A5
:1046300010B10448007870BD2846FCE7A8000020AF
:10464000A4000020A0000020342C01409C00002089
:104650002DE9F047814615461E46DDE9087800241D
:10466000002049490870494908600120484908600C
:10467000002048490860012140F21A30FFF724F970
:1046800008FB07F14846FFF7ADFC0120FFF7AAF849
:1046900041480068022808D1070202020023284688
:1046A0003146FBF7E9FD05460E463C480760102001
:1046B0003A494860402088600020C8604FF480601C
:1046C00008610846FFF72EF91020FCF7B9F80446F8
:1046D00014B12046BDE8F0873148008800042F4916
:1046E000086037204860402088600020C8604FF490
:1046F000806008610846FFF715F93720FCF7A0F83D
:1047000004460CB12046E5E72448C0F80080172095
:1047100022494860402088600020C8604FF48060D3
:1047200008610846FFF7FEF81720FCF789F80446F1
:104730000CB12046CEE7194805601920174948609A
:10474000402088600020C8604FF4806008610846FF
:10475000FFF7E8F81920FCF773F804460CB120467F
:10476000B8E74FF0FF300F49086008FB07F04860DA
:10477000902088600020C8600861012048610846D8
:10478000FFF736F82046A5E7A0000020A40000208F
:104790009C0000202C2C014094000020F09400206C
:1047A00098000020049500200CB500200190009096
:1047B0003448006840F480303249086000BF314816
:1047C000006800F4003000900198401C01900098AF
:1047D00018B90198B0F5A04FF1D12A48006800F44B
:1047E000003010B10120009001E0002000900098FE
:1047F000012846D123484030006840F080502149CC
:10480000403108602048006840F440401E4908607C
:104810001C48083000681B490831086008460068D9
:1048200040F4004008600846006840F4A05008606A
:104830001648091F0860081F006840F08070091FB3
:10484000086000BF0F48006800F000700028F9D031
:1048500040F205700E4908600A480830006820F0F0
:1048600003000849083108600846006840F002006B
:10487000086000BF03480830006800F00C000828FA
:10488000F8D10CBD003802400070004008544007C9
:10489000003C024010B504F06FF9012801D003F08C
:1048A0006DFE10BD10B51548006840F47000134946
:1048B00008601348006840F00100114908600020BA
:1048C0000F49083108600E4800680E4908400C493D
:1048D00008600D48091D0860081F006820F480204A
:1048E000091F0860002006490C310860FFF75CFFD3
:1048F0004FF0006001498039086010BD88ED00E08C
:1049000000380240FFFFF6FE1030002410B50121F0
:10491000044800F026F818B10121024800F01EF802
:1049200010BD00000000014010B50121880700F013
:1049300018F818B10121880700F010F810BD000028
:1049400010B50121044800F00CF818B1012102480B
:1049500000F004F810BD000000040040CA430282C9
:10496000704730B50246002000230024158A05EA6E
:104970000103958905EA010413B10CB1012000E09F
:10498000002030BD10B540F22551054800F055F823
:1049900020B140F22551024800F034F810BD00006B
:1049A0000010014010B540F22551054800F045F8CF
:1049B00020B140F22551024800F024F810BD00005B
:1049C0000010014010B540F22551054800F035F8BF
:1049D00020B140F22551024800F014F810BD00004B
:1049E0000048004010B540F22551054800F025F878
:1049F00020B140F22551024800F004F810BD00003B
:104A00000014014010B50022002340F66A14A142B0
:104A100000D100BF0A1201249440A3B2DC430480F9
:104A200010BD21B1828942F40052828104E0828962
:104A30004DF6FF731A408281704702460020B1F59F
:104A4000007F00D100BF13880B400BB1012000E0B4
:104A500000207047F0B50346002400260025002002
:104A600040F66A17B94200D100BF1846C1F342149C
:104A700001F01F06012707FA06F5012C01D10C30C1
:104A800004E0022C01D1103000E014301AB10768A4
:104A90002F43076002E00768AF430760F0BD0000E6
:104AA0002DE9FF4705460E460024A14600BFA0465B
:104AB000B08900B100BF2C8A24F44054F08804432C
:104AC0002C82AC8941F20C608443B0883189084360
:104AD000718908430443AC81AC8A24F44074B089E2
:104AE0000443AC826846FEF769FD2048854202D047
:104AF0001F48854202D1DDF80C9001E0DDF80890F6
:104B0000A88900F4004040B109EBC90000EB09108E
:104B100031684900B0FBF1F707E009EBC90000EB91
:104B2000091031688900B0FBF1F76420B7FBF0F0A1
:104B300004012009642101FB1078A88900F40040D9
:104B400040B1322000EBC800B0FBF1F000F00700EC
:104B5000044308E0322000EB08106421B0FBF1F0C0
:104B600000F00F0004432C81BDE8FF8700100140D6
:104B700000140140C1F308028280704700BFFEE7C5
:104B80000FB4054B10B503A9044A029800F018F8B9
:104B900010BC5DF814FB0000F56D00080401002056
:104BA00002E008C8121F08C1002AFAD170477047F6
:104BB000002001E001C1121F002AFBD17047000054
:104BC0002DE9FF4F8DB09B460F460446002606E0B8
:104BD00025280BD05A460F999047641C761C2078E4
:104BE0000028F5D111B03046BDE8F08F0025A84669
:104BF0000122984900E0054314F8013F203B02FAE6
:104C000003F00842F7D120782E2817D114F8010FAD
:104C100045F004052A280ED06FF02F022078A0F16D
:104C2000300109290AD808EB880102EB410100EBA9
:104C30000108641CF2E757F8048B641C20786C2888
:104C40000DD004DC4C2812D06A2811D104E074285D
:104C50000DD07A280CD10AE045F4001507E0617800
:104C600045F48015814202D1641C05F58015641C51
:104C70002278692A45D008DC002AB3D0582A69D0A6
:104C8000632A10D0642A08D13BE0702A67D0732AC7
:104C900013D0752A5CD0782A5CD010465A460F99FA
:104CA0009047761CD3E017F8040B8DF80000002025
:104CB0008DF80100E946012003E057F8049B4FF00E
:104CC000FF3069074FF0000501D40AE06D1C45452F
:104CD0000DDA8542FADB19F805100029F6D106E055
:104CE0006D1C8542FCDB19F805100029F8D12E4413
:104CF00004E019F8010B5A460F9990476D1EF8D23F
:104D0000A5E00A200021CDE90801C5F302500228E0
:104D10000DD001CFC117031E71F100030DDA4FF062
:104D2000000CD0EB0C006CEB01012D2308E0FF1D03
:104D300027F00707F7E80201EDE72B0504D52B2341
:104D40008DF8283001233BE0EB0739D02023F7E72B
:104D50000A2000E010200021CDE9080107E0102022
:104D6000002145F00405CDE908014FF00808C5F31E
:104D7000025002280FD001CF00214FF0000A2B076C
:104D80001FD5702A0DD0DDE908C38CF0100C5CEA49
:104D9000030C0CD015E0FF1D27F00707F7E8020110
:104DA000EBE740228DF828204FF0010A0BE050EA93
:104DB000010306D030238DF828308DF829200223F6
:104DC0009A46582A04D024A20DF120090B9209E03A
:104DD00026A2F9E7DDE90823FBF74EFA0B9B9B5C63
:104DE00009F8013D50EA0102F4D1ADEB0900203091
:104DF0000890680701D44FF001080899884502DD42
:104E0000A8EB010000E000208046002506E00AA88B
:104E10005A46405D0F9990476D1C761C5545F6DB50
:104E200004E030205A460F999047761CB8F10001F3
:104E3000A8F10108F5DC05E019F8010B5A460F99B5
:104E40009047761C0899481E08900029F4DC641CE1
:104E5000C5E60000092801003031323334353637D9
:104E600038396162636465660000000030313233B6
:104E70003435363738394142434445460000000056
:104E800070B504460D4600202071401E206329465F
:104E9000204602F05BF908B1032070BD94F832128D
:104EA00094F8330241EA00204AF65521884201D0A5
:104EB0000220F2E794F86D00010694F86C0041EAD4
:104EC000004194F86B0041EA002094F86A1008430E
:104ED00020F07F400D49884201D10020DDE794F8A1
:104EE0008900010694F8880041EA004194F887009F
:104EF00041EA002094F88610084320F07F400349DF
:104F0000884201D10020C8E70120C6E7464154008D
:104F1000024600E0521C107810B110788842F9D196
:104F2000107870470246891E9069801E884201D819
:104F3000002070479378D06A01FB0300F9E7000076
:104F40002DE9F04780460C46A17EE07E41EA002034
:104F500010B10020BDE8F087207800F03F00401E2F
:104F600000EB800101EBC0064FF00109002524E0B1
:104F70001A48405D205C1949495D2144497840EA5E
:104F80000127B9F1000F11D0FF2E0BD2384601F0E6
:104F900089FC82463146761C38F8110001F082FC0B
:104FA000824501D00020D5E7B94605E04FF6FF70F5
:104FB000874201D00020CDE76D1C0D2DD8D320787D
:104FC00000F0400038B1B9F1000F04D038F81600F5
:104FD00008B10020BEE70120BCE7000074A700086C
:104FE0002DE9F04704468946B9F1000F06D127693B
:104FF00017B1A069B84215D8012713E049462046E9
:1050000001F070FF0646022E02D20120BDE8F087B3
:10501000701C08B93046F9E7A069B04201D93046A2
:10502000F4E74F463D4600BF6D1CA069A84204D876
:105030000225BD4201D90020E8E72946204601F0BB
:1050400051FF064606B909E0701C08B1012E01D1D6
:105050003046DBE7BD42E7D10020D7E700BF6FF065
:1050600070422946204602F0ACFB8046B8F1000FA2
:1050700008D1B9F1000F05D02A464946204602F072
:10508000A0FB8046B8F1000F0BD125616069401C80
:1050900078B16069401E6061607940F00100607124
:1050A00007E0B8F1010F02D14FF0FF3000E001201E
:1050B00005462846AAE700002DE9F34F83B0814654
:1050C00004980068019002E00198401C019001984A
:1050D00000782F28F8D0019800785C28F4D0D9F80F
:1050E0001CA000252F4600BF38467F1C01990C5C90
:1050F000202C03DB2F2C01D05C2C00D132E0FF2DC3
:1051000003D3062005B0BDE8F08FE4B2812C13DB99
:10511000E0B2FE2810DC38467F1C01990E5C06EBDD
:10512000042084B2402E01DB7E2E05DD802E01DBC3
:10513000FE2E01DD0620E5E70121204601F044FBBB
:1051400004460CB90620DDE7802C06DA214671A062
:10515000FFF7DEFE08B10620D4E728466D1C2AF8CA
:105160001040C1E700BF0198C11904980160202CCC
:1051700001DA042000E00020804608E0681E3AF8CA
:105180001040202C02D02E2C00D002E06D1E002DED
:10519000F4D100BF0DB90620B4E700202AF81500AD
:1051A0000B222021D9F8180001F0C6FF002700E0EB
:1051B0007F1C3AF817002028FAD03AF817002E285A
:1051C000F6D00FB148F0030800E06D1E25B1681E4F
:1051D0003AF810002E28F8D10020064602904FF031
:1051E000080B00BF38467F1C3AF8104004B963E052
:1051F000202C03D02E2C04D1AF4202D048F003085B
:10520000F0E70298584501D2AF4214D1BBF10B0F21
:1052100002D148F003084FE0AF4201D048F0030844
:10522000AF4200D948E02F46082002904FF00B0B08
:10523000B006060ED6E7802C09DB204601F032FBD3
:105240000021009001F0C0FA044648F00208FF2C4B
:1052500011DDABF101000299884204D848F003083F
:10526000CDF808B0BEE72212D9F818300298411CD8
:1052700002911A5419E024B1214629A0FFF748FEF3
:1052800018B15F2448F003080FE0412C04DB5A2CCE
:1052900002DC46F0020608E0612C06DB7A2C04DC16
:1052A00046F00106A4F1200084B2D9F81830029823
:1052B000411C02911C5495E700BFD9F818000078F2
:1052C000E52803D10520D9F818100870BBF1080FA4
:1052D00001D1B006060E06F00C000C2803D006F033
:1052E0000300032801D148F0020808F0020058B971
:1052F00006F00300012801D148F0100806F00C0068
:10530000042801D148F00808D9F8180080F80B806B
:105310000020F7E6222A3A3C3E3F7C7F0000000056
:105320002B2C3B3D5B5D00002DE9F04104460E4611
:105330000021204600F0CDF90546EDB9002700BF59
:105340002169206801F002FF054605B113E060699C
:105350000078E52802D06069007820B9781C0746FB
:10536000B04201D107E000270121204600F07FF87C
:105370000546002DE4D000BF042D00D107252846A6
:10538000BDE8F0812DE9F04704460021204600F0F9
:10539000A0F9074617B13846BDE8F0874FF0FF097E
:1053A000CA464FF6FF70208400BF2169206801F0D3
:1053B000CDFE074607B157E065692E780EB9042780
:1053C00052E0E87A00F03F08E52E05D008F008002A
:1053D00040B1B8F10F0F05D04FF0FF094FF6FF7045
:1053E00020843AE0B8F10F0F1CD1E06978B306F0E1
:1053F000400030B195F80DA026F04006B146E08897
:1054000020844E450AD1687B504507D12946E06982
:10541000FFF796FD10B1A9F1010000E0FF2000F0B8
:10542000FF091AE0B9F1000F05D1284602F09AFBF6
:10543000504500D118E0A069C07A00F0010038B9E9
:105440000B222846A16901F057FE08B90CE004E0E0
:105450004FF0FF094FF6FF7020840021204600F036
:1054600006F80746002FA0D000BF384694E72DE984
:10547000F04104468846E088461CB0B208B1206975
:1054800010B90420BDE8F08121684889C11700EBFC
:10549000D1614911B6FBF1F201FB1261002971D112
:1054A0002069401C2061E06828B920680089B0426A
:1054B00068D80420E6E721684889C11700EBD1616C
:1054C0004911B6FBF1F122689278521E1140002971
:1054D00058D1E168206801F005FD0546012D01D88D
:1054E0000220CFE7681C08B90120CBE7206880695B
:1054F000A84241D8B8F1000F01D10420C2E7E16809
:105500002068FFF76DFD05460DB90720BAE7012DAC
:1055100001D10220B6E7681C08B90120B2E7206873
:1055200002F094FB08B10120ACE721684A8901F13F
:105530003400002101F000FE29462068FFF7F2FC4C
:105540002168086300270EE00120216808712068A7
:1055500002F07CFB08B1012094E72068006B401C3E
:10556000216808637F1C20688078B842ECD82068E6
:10557000006BC01B21680863E56029462068FFF7BF
:10558000D1FC2061E68021684889C11700EBD16118
:105590004911B6FBF1F201FB12612268343202EBD1
:1055A0004111616100206DE72DE9FE4F0446D4F8FA
:1055B0001880D4F81C900C224146684601F0AFFDDB
:1055C00000BF9DF80B0000F0010020B3002088F818
:1055D0000B00E06101260CE033464A46694640462E
:1055E00001F01AFC2046FFF7CDFE054605B102E0AA
:1055F000761C642EF0D300BF642E02D10720BDE8D4
:10560000FE8F042D01D02846F9E79DF80B0088F89D
:105610000B00C4F81C909DF80B0000F0020060B174
:10562000002600E0761C39F816000028FAD106F1B1
:1056300019000D21B0FBF1F700E0012739462046A3
:10564000FFF772FE054645BB781E071E25D0E08891
:10565000C11B204600F03DF80546F5B9A06902F0EF
:1056600081FA824600BF2169206801F06FFD05467E
:1056700005B111E0FAB253466169E06901F032FB0D
:1056800001202168087100212046FFF7F0FE054641
:1056900015B9781E071EE6D100BFC5B9216920687B
:1056A00001F054FD054695B920220021606901F002
:1056B00043FD0B22D4E9050101F031FDA069C07A58
:1056C00000F01800616908730120216808712846FC
:1056D00095E72DE9F04104460E46E680A568012DC8
:1056E00003D020688069A84202D80220BDE8F0817A
:1056F0002DB920680078032801D12068856A45B952
:1057000020680089B04201D80220EFE72068876A4C
:1057100024E021684889C11700EBD1614911226852
:10572000927811FB02F812E02946206801F0DAFBBA
:105730000546681C08B90120D8E7022D03D320686C
:105740008069A84201D80220D0E7A6EB08064645AA
:10575000EAD229462068FFF7E5FB0746E5600FB966
:105760000220C3E721684889C11700EBD1614911C4
:10577000B6FBF1F13944216121684889C11700EB7A
:10578000D1614911B6FBF1F201FB1261226834329A
:1057900002EB411161610020A8E770B504460125C4
:1057A00014B1012C09D107E0FEF7D6FA10B925F0A3
:1057B000010500E0012502E001E0012500BF00BF76
:1057C000284670BD2DE9F04705460E4614464FF0B9
:1057D000040915B1012D21D11FE0CEB1012E0BD04E
:1057E000022E02D0032E14D103E04FF4007020806B
:1057F0000FE0012020600CE00C48D0F850C0624659
:105800000023D0E912713846FAF736FD206000E037
:1058100000BF00BF4FF0000903E002E04FF00409B1
:1058200000BF00BF4846BDE8F0870000809400201C
:105830002DE9F047ADF5007D07460C4615461E469E
:105840004FF0040A4FF0000817B1012F44D142E095
:1058500004F0030000B34FF0000913E02A466D1C6A
:10586000012369460020FFF7E3FF8146B9F1000FED
:1058700000D00BE04FF4007269462046FAF72DFD88
:1058800004F50074301EA6F10106E7D100BF4846BA
:105890000DF5007DBDE8F0874FF4007069020A46FF
:1058A0000023CDE900062046FEF770FD8046B8F1E2
:1058B000000F07D1FEF74CFE804600BFFEF73DFA11
:1058C0000028FBD1B8F1000F02D04FF0040A01E02C
:1058D0004FF0000A03E002E04FF0040A00BF00BFEF
:1058E0005046D5E70146012011B1012904D102E05B
:1058F00020F0010002E001E0012000BF00BF70477E
:105900002DE9F047ADF5007D07460C4616461D46CD
:105910004FF0040A4FF0000825B904200DF5007D72
:10592000BDE8F08717B1012F41D13FE004F003003B
:10593000E8B14FF0000913E04FF4007221466846C9
:10594000FAF7CBFC3246761C012369460020FFF7AC
:10595000D7FF8146B9F1000F00D005E004F50074CF
:10596000281EA5F10105E7D100BF4846D6E74FF450
:10597000007071020A460023CDE900052046FEF7BB
:1059800067FE8046B8F1000F07D1FEF721FE804682
:1059900000BFFEF7D2F90028FBD1B8F1000F02D00A
:1059A0004FF0040A01E04FF0000A03E002E04FF07C
:1059B000040A00BF00BF5046B0E770B50446204659
:1059C00000F06DFD054665B9204602F00BFD054669
:1059D0003DB92668002020600021304602F05FF9C2
:1059E00000BF284670BD00002DE9F74F90B09146EA
:1059F0001198012803DD132013B0BDE8F08F10A823
:105A000001F014FB0F900F98002801DA0B20F3E748
:105A1000FA490F9851F820500DB90C20ECE70020FE
:105A200028700F98C0B20C9000200B900C98FFF7D4
:105A3000B4FE0190019800F0010008B10320DBE7FB
:105A4000019800F0040008B10A20D5E705F10A0228
:105A500002210C98FFF7B6FE38B96889B0F5805F6F
:105A600003DC6889B0F5007F01DA0120C4E700BFDC
:105A700004AA01210C98FFF7A5FE10B9049880280C
:105A800001D20120B8E7119808B1002000E03F20C2
:105A900082460498A0EB0A000490A9F1010000EAF4
:105AA000090008B14FF00009B9F1000F1AD1688957
:105AB000C11700EBD15149124FF4FA6292FBF1F198
:105AC000049AB2FBF1F10A914FF0000B01E00BF1E7
:105AD000010BCB4830F81B100A988142F7D8C9480F
