:020000040800F2
:1000000060DC012055020008430C0008F7090008D5
:10001000410C000895030008252500080000000099
:100020000000000000000000000000009D0100082A
:100030003D07000800000000F101000889220008C7
:100040006F0200086F0200086F0200086F020008CC
:100050006F0200086F0200086F0200086F020008BC
:100060006F0200086F0200086F0200086F020008AC
:100070006F0200086F0200086F0200086F0200089C
:100080006F0200086F0200086F0200086F0200088C
:100090006F0200086F0200086F0200086F0200087C
:1000A0006F0200086F0200086F0200086F0200086C
:1000B0006F0200086F0200086F0200086F0200085C
:1000C0006F0200086F0200086F0200086F0200084C
:1000D0006F0200086F0200086F0200086F0200083C
:1000E0006F0200086F0200086F0200086F0200082C
:1000F0006F0200086F0200086F0200086F0200081C
:100100006F020008250F00086F0200086F02000848
:100110006F0200086F0200086F0200086F020008FB
:100120006F0200086F0200086F0200082505000832
:100130006F0200086F0200086F0200086F020008DB
:100140006F0200086F0200086F0200086F020008CB
:100150006F0200086F0200086F0200086F020008BB
:100160006F0200086F0200086F0200086F020008AB
:100170006F0200086F0200086F0200086F0200089B
:100180006F0200086F020008DFF80CD000F08AF858
:10019000004800474527000860DC01202A4B196809
:1001A0000868B0E8F04F80F30988BFF36F8F4FF015
:1001B000000080F3118870470000000006480068C6
:1001C000006880F3088862B661B6BFF34F8FBFF353
:1001D0006F8F00DF00BF00BF08ED00E0DFF80C000C
:1001E000016841F470010160704700BF88ED00E0D4
:1001F000EFF30980BFF36F8F134B1A681EF0100FD7
:1002000008BF20ED108A20E9F04F106008B44FF0CD
:10021000500080F31188BFF34F8FBFF36F8F02F050
:1002200067FF4FF0000080F3118808BC1968086868
:10023000B0E8F04F1EF0100F08BFB0EC108A80F34A
:100240000988BFF36F8F70474C000020EFF30580E3
:10025000704700000648804706480047FEE7FEE773
:10026000FEE7FEE7FEE7FEE7FEE7FEE7FEE7FEE766
:100270009D2200088901000830B50B460146002088
:100280002022012409E021FA02F59D4205D303FA58
:1002900002F5491B04FA02F52844151EA2F10102D9
:1002A000F1DC30BD064C074D06E0E06840F001038C
:1002B00094E8070098471034AC42F6D3FFF768FF84
:1002C00078360008983600081CB502F04FFD022071
:1002D00013490402CDE900010023224611A114486C
:1002E00002F0E8FF012802D112A002F01DF90C492A
:1002F0000320091DCDE900010023224614A117485F
:1003000002F0D8FF012802D115A002F00DF904482F
:10031000001F006802F030FEBDE81C4002F062BD24
:1003200028000020546573745F5461736B000000F3
:10033000F9220008B4B4BDA8546573745F546173A6
:100340006BC8CECEF1B3C9B9A6210D0A00000000DA
:100350004B45595F5461736B00000000490B000866
:10036000B4B4BDA84B45595F5461736BC8CECEF190
:10037000B3C9B9A6210D0A0010B507E003780C78BF
:10038000A34201D0002010BD401C491C521EF5D2D2
:10039000012010BDFEE7000070B537490546002476
:1003A000086810F0450FFBD0410702D50324042054
:1003B00003E0C00704D00124204600F04DFD59E0C1
:1003C00000F086FDA8422BD140F2FF5000F044FD22
:1003D000002000F09FFD294908424BD0002801DA97
:1003E0001C2070BD410001D5092070BD810001D5E0
:1003F0000A2070BDC10001D50B2070BD010101D5DF
:100400000C2070BD410101D50D2070BDC10101D589
:100410000E2070BD010201D50F2070BD410201D533
:10042000102070BD810201D5112070BDC10201D51F
:10043000122070BD010301D5132070BD410301D509
:10044000142070BD810301D5152070BDC10301D5F5
:10045000162070BD010401D5172070BD410401D5DF
:10046000182070BD810401D5192070BD000701D589
:100470001A2070BD204670BD342C014008E0FFFDFD
:1004800010B50B4A0024116811F0450FFBD0480746
:1004900002D50324042003E0C80705D00124204628
:1004A00000F0DAFC204610BD40F2FF50F8E70000F3
:1004B000342C014070B50C461949064600250868E1
:1004C00010F0450FFBD0410702D50324042003E0C0
:1004D000C00705D00124204600F0BEFC204670BDB8
:1004E00000F0F6FCB04212D140F2FF5000F0B4FC34
:1004F000002000F00FFD10F4604F03D0810404D5FC
:10050000132070BD000C208007E0410401D51020AD
:1005100070BD000401D50F2070BD284670BD0000DD
:10052000342C014010B55020EFF3118480F3118872
:10053000BFF34F8FBFF36F8F01F0DEFA84F31188A2
:1005400010BD0000074A904201D2074801E005486B
:100550001038064A8B0001EA020101D5C1607047DC
:100560008160704710640240006002407D0F7D0F83
:100570000029016802D041F0010101E021F00101F0
:10058000016070472DE9F043016821F0010101602D
:100590000021016041608160C160016121214161F0
:1005A0003C493C4A3D251039904202D18D60BDE85E
:1005B000F083384A4FF474661832904201D18E604D
:1005C000F5E7344A4FF474173032904201D18F600E
:1005D000EDE7304A4FF0746C4832904202D1C1F8D6
:1005E00008C0E4E72B4B2C4A6033984201D1CA6023
:1005F000DDE7284C294B7834A04201D1CB60D6E707
:10060000DFF89080264C08F19008404501D1CC607D
:10061000CDE7DFF880804FF03D5908F1A80840454C
:1006200002D1C1F80C90C2E71E49DFF87880083982
:10063000404501D10D60BAE71A4D1835A84201D1E5
:100640000E60B4E7174D3035A84201D10F60AEE718
:10065000144D4835A84202D1C1F800C0A7E7114D9A
:1006600010496035091FA84201D10A609FE70D4A71
:100670007832904201D10B6099E70A4A9032904259
:1006800001D10C6093E7074AA83290428FD1C1F89C
:1006900000908CE7106002403D000020400F0020D9
:1006A00000003D20106402400029016802D041F0A2
:1006B000200101E021F02001016070470B0607D501
:1006C000436912B143F0800301E023F080034361EA
:1006D000802908D0002A026801F01E0101D00A43D7
:1006E00000E08A430260704730B50368124ACC6864
:1006F00013400A682243D1E905452C432243CC69C3
:1007000022430C6A22434C6A22438C6A22434C6B7C
:1007100022438C6B22431A430260426922F0070392
:10072000D1E90B2422431A4342610A6942604A68B4
:1007300082608968C16030BD3F801CF07047000056
:10074000F0B5012187B0084600F0B8FA0121102069
:1007500000F0C0FA012500248DF806408DF80750FE
:1007600002266802254F8DF8056000908DF8046020
:100770006946384600F0ECF8A80200908DF8046055
:100780006946384600F0E4F807220A21384600F0AE
:100790001BF907220921384600F016F94FF4E13021
:1007A000ADF80C400290ADF80E40ADF81040ADF839
:1007B00014400C20124CADF8120002A9204601F0A2
:1007C00057FE4FF4A06000F06FFA25208DF8180056
:1007D0008DF819508DF81A508DF81B5006A800F0AE
:1007E00031FA012240F22551204601F028FE012174
:1007F000204601F013FE07B0F0BD000000000240EB
:100800000010014010B5002303E09C18C4545B1C89
:100810009BB28B42F9D310BD2DE9FC5F0024494FF8
:1008200000944FF4806801944025C7F81080C7E910
:1008300002540E464FF0080B1021C7E900B1A14643
:10084000384600F0A7FB1020FFF7A6FD00284ED188
:100850003D48AA464D460089000438603720C7E964
:10086000010AC7E90398384600F094FB3720FFF7E8
:1008700093FD00283BD1411E07F11400C0E9001B85
:10088000302181600221C0E903150121416100F09E
:10089000FBFA3320C7F808A0C7E90050C7E903589E
:1008A000384600F077FB3320FFF776FD05001ED1B8
:1008B000DFF898804FF4001A6F4640F22A69D8F8A2
:1008C000000010EA090F0AD1504600F007FB00288B
:1008D000F5D000F059FB47F82400641CEFE708202E
:1008E00000F0FCFA28B1082000F0B6FA0420BDE8B8
:1008F000FC9F022000F0F2FA20B1022000F0ACFAD6
:100900000220F4E7202000F0E9FA20B1202000F0D6
:10091000A3FA0620EBE74FF40074204600F0DEFA5D
:1009200020B1204600F098FA0720E0E740F2FF509F
:1009300000F092FA009800BA7060019800BA306036
:100940002846D4E75001002030000020342C01401C
:10095000F0B5002201274FF0030C0B6807FA02F5EF
:100960002B40AB422CD1066853000CFA03F4A6438B
:1009700006600E79D0F800E09E4046EA0E0606605A
:100980000E79012E01D0022E12D18668A643866010
:100990004E79D0F808E09E4046EA0E06866046682A
:1009A000AE43466045688E799640B6B235434560A1
:1009B000C568A543C560CC799C40C3681C43C4602E
:1009C000521C102AC9D3F0BD4B07DB0E9A40C90850
:1009D00010B500EB8100016A0F249C40A143016225
:1009E000016A1143016210BD0246002012690A42E9
:1009F00000D001207047FEE77CB5044600254E4834
:100A000000950195008902044C4802600D22426065
:100A10004022C0E902251101016100F0BBFA4849FA
:100A20000868019002E00A680192104610F0450F34
:100A3000F9D00198400702D50324042004E001986E
:100A4000C00705D00124204600F006FA20467CBDF0
:100A500000F03EFA01900D2838D140F2FF5000F02E
:100A6000FBF9002000F056FA0090C0F343202070FC
:100A70003449009808425DD00098002801DA1C2013
:100A80007CBD400001D509207CBD0098800001D5C7
:100A90000A207CBD0098C00001D50B207CBD0098C9
:100AA000000101D50C207CBD0098400101D50D202E
:100AB0007CBD0098C00101D50E207CBD00980002CD
:100AC00001D50F207CBD0098400201D510207CBDCF
:100AD0000098800201D511207CBD0098C00201D58C
:100AE00012207CBD0098000301D513207CBD009826
:100AF000400301D514207CBD0098800301D515204A
:100B00007CBD0098C00301D516207CBD0098000470
:100B100001D517207CBD0098400401D518207CBD6C
:100B20000098800401D519207CBD0098000701D5EC
:100B30001A207CBD28467CBD3000002050010020DA
:100B4000342C014008E0FFFD084D4FF400442146DD
:100B5000284600F039F8012804D105A001F0E4FC92
:100B600001F090F9142002F0CDF9F0E70004024002
:100B70000D0ABFAACABCBDF8D0D05344BFA8B6C1A5
:100B8000D0B4CAB5D1E90D0A000000001CB501219E
:100B9000062000F093F84FF40040009000208DF8FC
:100BA00004008DF8070069460548FFF7D1FE4FF4B1
:100BB0000050009069460348FFF7CAFE1CBD0000C4
:100BC000000402400008024070B50C460546FFF7DD
:100BD0000BFF012801D0002070BD21462846FFF7F9
:100BE00003FF0128F9D0012070BD00007CB5012170
:100BF000202000F063F801218DF8041000208DF80A
:100C000006008DF807100D4E4FF400748DF80500A6
:100C1000009469463046FFF79BFE694630460094D3
:100C2000FFF796FE6500694630460095FFF790FE97
:100C3000024818300480048005807CBD0014024006
:100C4000FEE7704730B50F23C27801780125FAB16D
:100C5000144A126801F1E02102F4E062C2F5E06298
:100C6000C2F30722C2F10404D3404278A240847840
:100C70001C401443220181F80024007800F01F0179
:100C80008D404009800000F1E020C0F8005130BDE7
:100C900001F01F0085404809800000F1E020C0F805
:100CA000805130BD0CED00E0024908430249086064
:100CB000704700000000FA050CED00E0044A00292E
:100CC000116801D0014300E08143116070470000CA
:100CD00030380240044A0029116801D0014300E085
:100CE000814311607047000044380240044A0029E3
:100CF000116801D0014300E081431160704700009A
:100D00002438024070B5204B1968204C11F00C01BA
:100D100004D01F4E042903D0082903D004601BE02F
:100D2000066019E0184A121F1168C1F38055116856
:100D300001F03F0115B1B6FBF1F101E0B4FBF1F1B7
:100D400014681268C4F388146143C2F30142521C50
:100D50005200B1FBF2F1016019680F2202EA111191
:100D60000C4A545C0168E14041601C68072505EAB3
:100D70009424145D21FA04F484601B6805EA53335B
:100D8000D25CD140C16070BD083802400024F4003C
:100D900040787D01140000202DE9FC4700248146A5
:100DA00000942046019400F0B5F8800102D50E2091
:100DB000BDE8FC87264D6946288980B2FFF72CFDE7
:100DC0000028F5D13720234E01994FF0060A4FF045
:100DD00040084FF48067B9F1010F1ED0C90334D524
:100DE0002989C6F808800904C6E90010C6E9034746
:100DF000304600F0CFF83720FFF7CEFA0028D7D1E1
:100E0000C6F80880C6E9004AC6E90347114800F061
:100E1000C1F80620FFF7C0FACAE7490315D52989AA
:100E2000C6F808800904C6E90010C6E90347094866
:100E300000F0B0F83720FFF7AFFA0028B8D1022051
:100E4000C6F80880C6E9000ADEE72520B0E7000002
:100E50003000002050010020014908607047000068
:100E6000382C01400149086070470000382C0140CF
:100E70000149C1F8A000704700802542014908607F
:100E8000704700008C85254210B50A4A0168116040
:100E9000121D41681160131D1968D0E90224224314
:100EA000D0E90440044321F0F70122430A431A60C9
:100EB00010BD0000242C014010B50121CC022046B9
:100EC000FFF714FF2046BDE810400021FFF70EBFDA
:100ED00001480068C0B27047102C0140034A014627
:100EE000002012680A4200D001207047342C0140D3
:100EF000034A0146002012680A4200D001207047D0
:100F0000342C01400248006800F0030070470000E4
:100F1000002C014008B5024908440090006808BD53
:100F2000142C014010B55020EFF3118480F3118888
:100F3000BFF34F8FBFF36F8F00F0F2FD84F3118882
:100F400010BD0000044A0029116801D0014300E0EF
:100F500081431160704700003C2C014030B5094BC3
:100F60001A6847F6FF618A43017D8468C56821439A
:100F700044682C4321430468006921430143114321
:100F8000196030BD042C0140014800687047000022
:100F9000802C014010B5084A01681160131D1968C2
:100FA000D0E901242243D0E9034004436FF30A014E
:100FB00022430A431A6010BD082C01400149086011
:100FC00070470000002C01402DE9F041014619480E
:100FD00000244068032813D018B1012801D002284A
:100FE00025D1B1F5805F0BD04FF400670025124E7C
:100FF000B9420ED10120FFF7CFFE040003D016E066
:101000002720BDE8F081357535607560C6E9025767
:1010100009E00020FFF7C0FE040008D135753560F7
:101020007560B560F56004483561FFF797FF2046AD
:10103000E7E7000030000020380100202DE9FF5FC5
:1010400082B006460024414800948DF80440406870
:101050001546000D8B462746800603D4252006B092
:10106000BDE8F09F3A4800683A49C0B2801CB1FB25
:10107000F0F000900020FFF74DFF800101D50E2019
:10108000EDE73548DFF8C4804FF0400A406808F1CA
:10109000A0084FF48069022805D058B1012809D072
:1010A000022807D027E0760A05986D0A46EACB5653
:1010B00045EAC0552020E8E80260564688E8C002AC
:1010C0002248A8F10808A030FFF764FF2020FFF7AE
:1010D00063F90028C3D148F8045B212088E8C102E5
:1010E0001A48A8F10408A030FFF754FF2120FFF7A9
:1010F00053F90028B3D140462621C0E90071C8E960
:1011000002A71248C8F81090A030FFF743FF26202E
:10111000FFF742F90028A2D100E0641C0098844245
:10112000FBD301A8FFF768FC4FF0FF3404E001A8EF
:10113000FFF762FC641E92D0002890D19DF8041045
:101140000729F4D00629F2D089E70000B00000207A
:10115000042C0140C0D40100300000207CB5214C9B
:101160004FF40075E07840BB00234FF44846324608
:1011700018461946FFF762FFE070F0B96420CDE928
:10118000005000221346184800F06CFDE07000F09B
:10119000D7FEE07000F088F90028FBD1E07860B954
:1011A000114806E00178FF2902D009B1002003E0D0
:1011B000401C761EF6D20120207023780B48811C3B
:1011C0000215012B058009D005800A8008A001F0D6
:1011D000ABF90C48BDE87C4001F0A6B90D80028057
:1011E00009A0F7E7480000207CCD00201814024039
:1011F0005344BFA8B2C1B3FDB2E2CAD4CAA7B0DC9F
:10120000A3A10A00D43500085344BFA8B2C1B3FD5E
:10121000B2E2CAD4B3C9B9A6A3A10A002DE9F0432A
:101220009549DFF858924F6880F856700989A0F800
:101230005410D9F800100A0E94090470C2F3830404
:10124000447002F0030282700A0CC2700A0A027132
:101250004171D9F80430190E0901C180C288C3F365
:10126000074142EA1112C28001F00F010172C3F37B
:101270000721CA094272C1F380128272C1F340127F
:10128000C272C1F300120273002545734A464FF043
:1012900001089268140EC2F30746C2F3072C27B167
:1012A000012F02D0022F39D050E08907090D0161CA
:1012B000D9B2036943EA81010161016941EA9411EC
:1012C0000161C4F3C201017504F0070141757109A0
:1012D0008175C6F38201C175B107490F0176037E9E
:1012E000614643EAD11303760469067EB61C08FA08
:1012F00006F3DF17641CA4FB036C05FB03C304FBAC
:101300000734077A08FA07F3A6FB037C036504FB9E
:1013100003C306FB0533C0E9127317E09906890A77
:101320000161016941EA04210161016931430161FF
:10133000036961465B1C45F10004E40444EA53344C
:10134000DB04C0E912344FF400730365C1F380136A
:1013500043768906490E00F81A1FD1B2027842EA94
:10136000D11200F8012B01F07F0100F8011BD9F820
:101370000C20110ECB0900F8013BC1F3411300F81A
:10138000013BC1F3820300F8013B8907090F01709B
:101390000378C2F3074143EA911300F8013BC1F31C
:1013A00040130370457001F001018170C2F3072101
:1013B000CB09C370C1F380130371C1F340134371B0
:1013C000C1F300138371C1F38103C37101F0030101
:1013D0000172C2F34601417280F80A80274A103236
:1013E00011680B0E03730B0C1B02C381C489C1F37C
:1013F00007231C43C48109060161516804690B0E6F
:1014000044EA034303610469C1F3074344EA032345
:1014100003610469C1F307231C43046101759168EA
:101420000B0E43750B0C1B0683618469C1F3072304
:1014300044EA034383618369C9B243EA01218161BC
:10144000D168836943EA11638361037FC1F3074273
:1014500043EA121303771207120DC283C38BC1F341
:1014600007221343C383C1F3460180F8201080F89C
:1014700021802846BDE8F08330000020B000002025
:101480001CB50020009001208DF804009DF8040098
:10149000012803D1684600F05FFC08B1FF201CBDA5
:1014A0000098C0F343201CBD10B5FFF7E9FF0428E6
:1014B00003D0FF2803D0012010BD002010BD022062
:1014C00010BD00001CB500248DF800404FF44070A2
:1014D000FFF7EAFB31208DF8040006208DF80500A7
:1014E0008DF8064001208DF8070001A8FFF7AAFB40
:1014F0003B208DF8040005208DF8050001A8FFF7BA
:10150000A1FB00F043F9FFF7D7FC00F0F1F98DF8EB
:1015100000009DF8000058BB00F030F88DF8000086
:101520009DF8000020BB144804750460446084608A
:10153000C4600461FFF712FD0F485838FFF76EFED4
:101540008DF800009DF8000048B90B48002158387C
:10155000B0F85400000400F0E9FB8DF800009DF89D
:10156000000028B94FF40060FFF72EFD8DF8000051
:101570009DF800001CBD0000380100202DE9F84F47
:1015800001200024ADF80000FFF7BCFCA8B3DFF891
:10159000E090D9F80400042868D0364D4FF0C00A16
:1015A00000260220C5F808A0C5E900604FF4806855
:1015B000C5E903682846FFF7EDFCFEF761FF04006C
:1015C0001DD1FFF7A7FCA5F1900738600420FFF7B5
:1015D000A1FC78600820FFF79DFCB8600C20FFF7A5
:1015E00099FCF860D9F804004F4650B1012808D0A2
:1015F000062806D0022804D013E0FFE72520BDE826
:10160000F88F0320E5E80260402085E84101194891
:10161000083DFFF7BFFC69460320FEF74BFF0400BF
:10162000EDD17868042821D0BDF80000B86000042E
:1016300028600920C5E9010AC5E903680D48FFF7DC
:10164000A9FCFEF71DFF0400D9D1FFF763FC094D8B
:10165000A03D28600420FFF75DFC68600820FFF7CC
:1016600059FCA8600C20FFF755FCE8602046C6E74F
:10167000300000205001002030B51F4D04468FB0CF
:101680004FF0FA512846FEF75DFF00212846FEF78D
:101690006FFF2846FEF776FF4FF000600090174876
:1016A000CDE9010400200121CDE903018902CDE942
:1016B0000501890007918900CDE908104FF44030F9
:1016C0000A9004200B9003200C9048020D9080108B
:1016D0000E9069462846FFF707F801221021284698
:1016E000FEF7ECFF20212846FEF7DEFF0121284609
:1016F000FEF73EFF0FB030BD58640240802C014021
:1017000030B5204D04468FB04FF0FA512846FEF711
:1017100019FF00212846FEF72BFF2846FEF732FF6F
:101720004FF0006000901848CDE90104402003907C
:101730000120049000202915CDE9050189000791B9
:101740008900CDE908104FF440300A9004200B9036
:1017500003200C9048020D9080100E906946284698
:10176000FEF7C2FF012210212846FEF7A7FF202125
:101770002846FEF799FF01212846FEF7F9FE0FB033
:1017800030BD000058640240802C01407CB501212E
:101790000C20FFF793FA244D0C2208212846FFF76E
:1017A00013F90C2209212846FFF70EF90C220A2111
:1017B0002846FFF709F90C220B212846FFF704F908
:1017C0000C2211462846FFF7FFF8184E0C22022182
:1017D0003046FFF7F9F84FF47060009002208DF862
:1017E00005008DF8040000248DF8064001208DF8D6
:1017F000070069462846FFF7ABF8042000906946C9
:101800003046FFF7A5F8A81400908DF80740694608
:101810002846FFF79DF80121C802FFF75BFA012176
:101820008805FFF74BFA7CBD00080240000C02401F
:101830002DE9FC414FF44847002239462148FEF784
:10184000E1FF214D4FF40074E87840BB6426CDE9F8
:101850000046002213461B4800F034FCE87000F0FC
:10186000A3FBE870FFF720FE0028FBD1E878B0B9B1
:10187000CDE9004600221346144800F0F3F9E87061
:1018800000F05EFBE870FFF70FFE0028FBD1E87860
:1018900028B93A460D490B48FEF76EFDA870AB78A3
:1018A0000B48811C0215012B07D00C80048002809C
:1018B0000848BDE8FC4100F037BE04800C8002807F
:1018C00005A0F6E77C050020480000207CCD002024
:1018D00018140240343600084D756C746920626C2F
:1018E0006F636B20B2E2CAD4B3C9B9A6A3A100004A
:1018F0002DE9FC5F00248DF800407B4876212746C7
:101900000175046044608460C46025462646A04694
:101910000461FFF723FB0320FFF750FB0120FFF7D3
:10192000A7FADFF8C4A14FF480610AF1180A504603
:10193000CAF80040CAF80440CAF80840CAE903419E
:10194000FFF728FBA1464FF4803401E0641E11D05C
:101950008020FFF7C3FA0028F8D05CB140F2FF50B6
:10196000FFF77AFA48468DF800009DF8000000283D
:101970005FD101E00320F6E74FF4D5705446CAF872
:10198000000008204FF0400BC4E9010B4FF00009A4
:10199000C001C4E9039054481830FFF7FBFA534BD9
:1019A00000224FF4803019689A4602E0DAF80010FD
:1019B000401E11F0450F06D008B1480706D5032296
:1019C0000420019207E00028F0D1F8E7480605D589
:1019D000002240200192FFF73FFA019A8DF8002083
:1019E0009DF8000030B34846372184E803084FF4DF
:1019F0008060C4E903903C481830FFF7CBFA3720E9
:101A0000FEF7CAFC8DF800003748D946183000218F
:101A1000372280E806024FF4806BC0E9031BFFF712
:101A2000B9FA3720FEF7B8FC8DF800009DF80000E9
:101A300098B355E02E4801214FF080484160E3E71C
:101A4000294C002618343720C4F80890C4E90060F7
:101A5000C4E9036B5F462046FFF79CFA3720FEF788
:101A60009BFC8DF800009DF8000090BB214948EADE
:101A7000010020602920C4E90109C4E90367204668
:101A8000FFF788FA00245146086810F0450FFBD094
:101A9000400703D50324042002E00EE040F2FF508B
:101AA000FFF7DAF98DF800409DF8000088B90020B2
:101AB000FFF730FAC60F07466D1C1EB94FF6FF70D0
:101AC0008542BDD34FF6FF70854203D31B208DF8AE
:101AD000000005E017F0804F02D005480221416068
:101AE0009DF80000BDE8FC9F38010020342C014027
:101AF00030000020000010800748006810F0C05F30
:101B000008D006490120486103484FF0C2515830BF
:101B1000FEF718BD7047000000640240300000204E
:101B200070B54FF480752846FFF7E2F91F4C38B1C5
:101B3000002020702846FFF795F9012020612EE053
:101B40000220FFF7D5F920B10220FFF78BF9022020
:101B500024E00820FFF7CCF920B10820FFF782F934
:101B600004201BE02020FFF7C3F920B12020FFF75D
:101B700079F9062012E01020FFF7BAF920B1102001
:101B8000FFF770F9052009E04FF400752846FFF7CC
:101B9000AFF920B12846FFF765F907202070002132
:101BA0004CF23A30FFF7CEF9207870BD30000020BB
:101BB0002DE9F047284E0027089D14469846814697
:101BC00037703761F76025480760012140F22A30FD
:101BD000FFF7B8F90120FFF751F929464846FFF70A
:101BE0004BFD7068022803D10502640A44EAC85418
:101BF0001B4E4FF040091020C6F80890C6E900506F
:101C00004FF48068C6E903783046FFF7C3F9102027
:101C1000FEF7C2FB00281CD1411E06F11400C0E9EA
:101C20000015902181600221C0E903170121416163
:101C3000FFF72AF91120C6F80890C6E90040C6E966
:101C400003783046FFF7A6F9BDE8F0471120FEF70C
:101C5000A3BBBDE8F0870000300000202C2C014021
:101C6000500100202DE9F05F2D4FDDE90A464FF0CD
:101C7000000815469946824687F80080C7F810800C
:101C80004FF0010BC7F80CB02649C1F80080594647
:101C900040F22A30FFF756F906FB04F15046FFF7F1
:101CA000EBFC0120FFF7EAF87868022803D1040270
:101CB0006D0A45EAC9551C4F4FF0400A1020C7F87D
:101CC00008A0C7E900404FF480693846C7E9038996
:101CD000FFF760F91020FEF75FFB00281ED1411EC0
:101CE00007F114006643E0E80216902102C00221C9
:101CF000444680E8120807F11400FFF7C5F81220E7
:101D0000C7F808A0C7E90050C7E903493846FFF7FC
:101D100041F9BDE8F05F1220FEF73EBBBDE8F09F41
:101D2000300000202C2C014050010020094910B542
:101D3000086007204860402088600020C8604FF499
:101D4000806008610846FFF725F9BDE810400720CC
:101D5000FEF722BB5001002070B5050019D00E48D7
:101D6000008901040D4801600D214160402181601E
:101D70000021C1604FF480610161FFF70BF90D2074
:101D8000FEF70AFB040003D1FFF7C4F828602046E1
:101D900070BD262070BD00003000002050010020E2
:101DA00038B54FF4007443F20F2221461F48FEF766
:101DB00029FD1F4DE87828BB002213461B480094DC
:101DC00000F026F9E87000F0EFF8E870FFF76CFB20
:101DD0000028FBD1E878A8B90022134615480094E2
:101DE000FFF7E6FEE87000F0ABF8E870FFF75CFB89
:101DF0000028FBD1E87828B922460E490B48FEF7A7
:101E0000BBFA68706B780C48821C0115012B07D057
:101E10001480048001800948BDE8384000F084BB8C
:101E200004801480018006A0F6E700007C010020F9
:101E3000480000207C030020181402408C35000864
:101E400053696E676C6520626C6F636B20B2E2CA87
:101E5000D4B3C9B9A6A3A10A00000000084810B570
:101E600000210C22C0E900124022C0E90221110128
:101E70000161FFF78FF8BDE810400C20FEF78CBA27
:101E8000500100202DE9F041164D4FF400742C80D4
:101E90002C80AF1C66003E80FFF714FBDFF8488003
:101EA00088F8030020B13C802C802E800FA000E039
:101EB0001EA000F039FB98F80300002810D12C80F8
:101EC0002C803E80FFF74AF92C802C803E80FFF763
:101ED00067FF2C802C803E80BDE8F041FFF7A8BC56
:101EE000BDE8F08118140240480000205344BFA808
:101EF000B3F5CABCBBAFCAA7B0DCA3ACC7EBC8B7CD
:101F0000B1A35344BFA8D2D1D5FDC8B7BDD3C8EB48
:101F1000BFAAB7A2B0E5A3ACBBF2BBBBD2BBD5C5D1
:101F20005344BFA8B2E2CAD4A3A10A005344BFA835
:101F3000B3F5CABCBBAFB3C9B9A6A3A10A000000E0
:101F40002DE9F04100256C1E2146154E00E0491E8A
:101F5000706928B9306918B9307808B90029F6D104
:101F6000002777610F4800E0641E0168890401D5ED
:101F7000002CF9D1F068012803D1FFF76FFF054667
:101F8000F7602C4300D1042540F2FF50FEF764FFB8
:101F9000307810B13078BDE8F0812846FBE70000CA
:101FA00030000020342C01402DE9F04100256C1E4A
:101FB0002146154E00E0491E706928B9306918B9EC
:101FC000307808B90029F6D1002777610F4800E082
:101FD000641E0168C90401D5002CF9D1F0680128FC
:101FE00003D1FFF73BFF0546F7602C4300D10425E2
:101FF00040F2FF50FEF730FF307810B13078BDE886
:10200000F0812846FBE7000030000020342C01401E
:102010002DE9F047284F0026089D14469846814632
:102020003E703E61FE6025480660012140F22A3084
:10203000FEF788FF29464846FFF762FB0120FEF7BE
:102040001DFF7868022803D10502640A44EAC854D7
:102050001B4F4FF040091020C7F80890C7E9005007
:102060004FF48068C7E903683846FEF793FF1020F5
:10207000FEF792F900281DD11820C7F80890C7E98B
:102080000040C7E903683846FEF784FF1820FEF7D2
:1020900083F900280ED107F11402401EC2E90005A1
:1020A0009020C2E902060120C2E904601046FEF752
:1020B000EBFE3046BDE8F087300000202C2C0140BC
:1020C000500100202DE9F05F3F4FDDE90A454FF058
:1020D000000816469946824687F80080C7F81080A7
:1020E0000121F9603949C1F80080012140F21A301C
:1020F000FEF728FF05FB04F15046FFF701FB012026
:10210000FEF7BCFE7868022803D10402760A46EA8C
:10211000C9562F4F10204FF0400910C7C2464FF448
:10212000806B87E8010E381F3F1FFEF733FF10203A
:10213000FEF732F9002844D12348C846391D0089EA
:10214000D946000438603720C7F810B081E801058F
:102150003846FEF71FFF3720FEF71EF9002830D162
:10216000C7F808801720C7E90050C7E903A9C3468C
:10217000D0463846FEF70EFF1720FEF70DF900286F
:102180001FD11920C7F808B0C7E900604646C7E963
:1021900003893846FEF7FEFE1920FEF7FDF80028F9
:1021A0000FD107F11402401E6543C2E900059020DB
:1021B000C2E902060120C2E904601046FEF764FE8F
:1021C0003046BDE8F09F0000300000202C2C01407C
:1021D000500100200CB500222749009201920868A6
:1021E00040F4803008604FF4A043086800F40030E9
:1021F00001900098401C0090019810B900989842F6
:10220000F3D10868800334D5012001901A4840308A
:10221000026842F0805202601848026842F440426C
:1022200002601548083002680260026842F4004209
:102230000260026842F4A0520260031F104A1A6052
:102240000A6842F080720A600A689201FCD50D4962
:1022500040F205720A60016821F003010160016823
:1022600041F0020101600168C1F381010229FAD144
:102270000CBD01920CBD000000380240007000400F
:1022800019544007003C024010B501F03FF8012806
:1022900003D0BDE8104000F0F7BF10BD124810B5E4
:1022A000016841F4700101601048016841F00101CA
:1022B00001600E4A00210832116002680C4B1A407E
:1022C0000260031D0B4A1A60026822F48022026039
:1022D00006480C300160FFF77DFF03494FF00060B6
:1022E0008039086010BD000088ED00E00038024031
:1022F000FFFFF6FE103000240EA000F015F917A025
:1023000000F012F923A000F00FF9324800F00CF9A8
:10231000314800F009F931A000F006F93E4C4FF4C5
:102320007A75206880F400712160284600F0EAFD8B
:10233000F7E700000D0ABBB6D3ADCAB9D3C3D2B01C
:10234000BBF0202053544D3332204634303720BF69
:10235000AAB7A2B0E5A1A30D0A000000D4DABFAA73
:10236000CABCBDF8D0D05344BFA8BBF9B1BEB2E2DD
:10237000CAD4C7B0A3ACC7EBB8F8BFAAB7A2B0E540
:10238000B2E5C8EB333247D2D4C4DAB5C45344BF44
:10239000A80D0A00B1BEB3CCD0F2BBE1B6D4534411
:1023A000BFA8BDF8D0D020B7C7CEC4BCFECFB5CD36
:1023B000B320B7BDCABDB6C1D0B4A3ACBBE1C9BEE2
:1023C000B3FD5344BFA8B5C4CEC4BCFECFB5CDB396
:1023D0000D0A000048350008043500080D0A20C821
:1023E000F4D2D1C8B7C8CFA3ACC7EBB0B4BFAAB7BB
:1023F000A2B0E5B5C44B455931B0B4BCFCA3ACBFE9
:10240000AACABC5344BFA8B2E2CAD4CAB5D1E92E05
:102410002E2E2E0D0A00000014140240002981897E
:1024200002D041F4005101E021F400518181704754
:102430000246002012880A4200D00120704710B5E1
:10244000C1F3421301F01F040121A140012B07D069
:10245000022B07D01430002A026805D00A4304E09A
:102460000C30F8E71030F6E78A43026010BD000038
:102470007FB50446008A0D46C98820F440500143C8
:102480002182A08941F20C618843A9882A891143DD
:102490006A8902431143A181A08A20F44071A8896E
:1024A0000843A0826846FEF72DFC1A48844202D0F9
:1024B0001948844201D1039800E00298A1890904D7
:1024C00000EBC00101EB0010296801D5490000E0D4
:1024D0008900B0FBF1F06422B0FBF2F109010B09B5
:1024E0006FF018056B4300EB8300A3891D044FF0C8
:1024F000320306D503EBC000B0FBF2F000F007009A
:1025000005E003EB0010B0FBF2F000F00F00084311
:1025100020817FBD0010014000140140C1F308017B
:1025200081807047FEE700000FB4054B10B503A98A
:10253000044A029800F018F810BC5DF814FB000083
:1025400021270008AC00002002E008C8121F08C1C3
:10255000002AFAD170477047002001E001C1121F24
:10256000002AFBD1704700002DE9FF4F8BB09A463F
:102570000F460546002606E025280BD052460D9949
:1025800090476D1C761C28780028F5D10FB0304696
:10259000BDE8F08F0024A0460122604900E004431A
:1025A00015F8013F203B02FA03F00842F7D12878E2
:1025B0002E2817D115F8010F44F004042A280ED054
:1025C0006FF02F022878A0F1300109290AD808EB12
:1025D000880102EB410100EB01086D1CF2E757F89E
:1025E000048B6D1C287869283ED006DC0028CDD0ED
:1025F00063280BD0642804D136E0732810D07528E6
:102600004BD052460D999047761C85E017F8040B85
:102610008DF8000000208DF80100E946012003E05C
:1026200057F8049B4FF0FF3061074FF0000401D4CE
:102630000AE0641C44450DDA8442FADB19F8041000
:102640000029F6D106E0641C8442FCDB19F8041072
:102650000029F8D1264404E019F8010B52460D99DF
:102660009047641EF8D257E001CF4FF00A0B0028C4
:1026700002DA40422D2102E0210504D52B218DF8FC
:102680002410012103E0E10705D02021F7E70DF137
:10269000200908910CE00021F9E701CF4FF00A0B67
:1026A000F9E75946FDF7E8FD01F1300209F8012D7F
:1026B0000028F6D1ADEB090000F1200B600701D432
:1026C0004FF00108D84502DDA8EB0B0000E0002028
:1026D0008046002406E009A85246005D0D99904707
:1026E000641C761C08988442F5DB04E030205246D6
:1026F0000D999047761CB8F10001A8F10108F5DCAE
:1027000005E019F8010B52460D999047761CBBF174
:102710000001ABF1010BF4DC6D1C34E7092801006A
:1027200070B5074D0446C1B22846FFF7F7FE802179
:102730002846FFF77DFE0028F9D0204670BD000036
:10274000001001401CB54FF44070FEF7ADFAFEF7E3
:102750004DFAFDF7F5FFFEF719FA0CA0FFF7E4FEBE
:1027600018A0FFF7E1FE20490120CDE90001420257
:1027700000231EA1214800F09DFD012802D04FF04A
:10278000FF301CBD00F062FCFEE70000D5E2CAC7C6
:10279000D2BBB8F65BD2B0BBF05D2D53544D333293
:1027A000C8ABCFB5C1D0BFAAB7A2B0E52D46726500
:1027B0006552544F53B9CCBCFEBFE2C0FDB3CCA3AD
:1027C000A10A0A00B0B4CFC24B455931B9D2C6F004
:1027D000C8CECEF1A3ACB0B4CFC24B455932BBD6B4
:1027E000B8B4C8CECEF10A00240000204170705465
:1027F00061736B437265617465000000C902000873
:102800002DE9F041184E0F460446F5683068001D6A
:1028100000F068FA38B9306890F82C100120884030
:10282000316981433161601C07D137B13168BDE83E
:10283000F0410E48091D00F08DBA30682C44AC42BE
:102840004460316805D2B06BBDE8F041091D00F06D
:1028500069BA706B091D00F065FAB06A844200D253
:10286000B462BDE8F08100004C0000204C980120CB
:102870002DE9F041054600F079FA2D4EB068401C74
:10288000B06030682B4F10B1706930B32BE0356009
:10289000B068012827D1002404EB840007EB8000F6
:1028A00000F032FA641C202CF6D3234800F02CFAF6
:1028B0002148143000F028FA1F48283000F024FA8C
:1028C0001D483C3000F020FA1B48503000F01CFA44
:1028D000194870631430B06305E03068E96AC06A73
:1028E000884200D83560706A0121401C7062E86A35
:1028F000326981401143316100EB800007EB8000B9
:10290000291D00F027FA00F06DFA706900280CD03C
:102910003068E96AC06A884207D208494FF080509F
:102920000860BFF34F8FBFF36F8FBDE8F0810000E9
:102930004C0000207C950120FC97012004ED00E074
:1029400070B5124E124D1CE000F0CAFB306820B189
:10295000002400F061FDA4B901E00124F9E700F0D2
:1029600005FAF068C468201D00F0BCF9A868401E94
:10297000A8606868401E686000F034FA204600F0E5
:1029800009F868680028DFD170BD00003898012080
:102990004C00002010B50446006B00F055FA2046AC
:1029A000BDE8104000F050BA10484FF48041420793
:1029B00006D0C01D0D4920F00700411AC1F5804125
:1029C0000B4A00230144C2E900030839103A21F000
:1029D000070111604B600B600B1AC0E90013936094
:1029E0004FF000405360D0607047000060980120B5
:1029F00098000020074E4FF08054074DFFF7A0FFCE
:102A000030680128FAD92C60BFF34F8FBFF36F8F66
:102A1000F4E700007C95012004ED00E02DE9F0478B
:102A2000DDE909840E4682466FF00301206B01EB5D
:102A300082010844089D20F007079946780705D0D1
:102A400040F22B3218A11FA0FFF76EFD00202218C4
:102A5000315C82F83410315C11B1401C1028F6D37F
:102A6000002684F84360202D00D31F25201DE56239
:102A700000F055F904F1180000F051F92461C5F196
:102A800020006462A061666484F848604A4651464A
:102A9000384600F011F92060B8F1000F01D0C8F8F5
:102AA0000040BDE8F08700002E2E5C2E2E5C4672A2
:102AB000656552544F535C7372635C7461736B73DE
:102AC0002E6300004572726F723A25732C25640DD7
:102AD0000A00000030B5114900E011460A68824240
:102AE000FBD34B685C18844203D1406818444860AB
:102AF000084643681C18944209D1084C103C2468CD
:102B0000A24209D052681A4442600A681268026000
:102B1000814200D0086030BD0460F9E798000020D1
:102B20000648416B096829B1416BC968C9684968A1
:102B3000816270474FF0FF31FAE700004C0000203F
:102B400008484068401C05D040F20F1206A111A0B1
:102B5000FFF7EAFC502080F31188BFF34F8FBFF3DB
:102B60006F8FFEE7A00000202E2E5C2E2E5C46729A
:102B7000656552544F535C706F72745C5256445387
:102B80005C41524D5F434D34465C706F72742E63EE
:102B9000000000004572726F723A25732C25640D97
:102BA0000A0000002DE9F0410546002600F098FAE1
:102BB000324F386808B9FFF7F7FEF86805424FD181
:102BC000002D4DD0083568070BD005F00700C0F187
:102BD00008000544680704D0BF2229A132A0FFF7EE
:102BE000A3FC002D3CD07868854239D823491031A8
:102BF0000846046801E0214604466068A84202D203
:102C000020680028F7D13868B846844228D00E687A
:102C10002068086060680836401B10280ED96719C4
:102C2000780704D0EC2216A11FA0FFF77DFC606896
:102C3000401B786038466560FFF74CFF6168D8F844
:102C400004004246401AC8F80400D8F808309842F8
:102C500000D29060D8F80C0001430020C4E90001C4
:102C600000F0DAFB700705D04FF4967204A10EA0B5
:102C7000FFF75AFC3046BDE8F081000088000020D4
:102C80002E2E5C2E2E5C4672656552544F535C703E
:102C90006F72745C4D656D4D616E675C68656170E7
:102CA0005F342E63000000004572726F723A257324
:102CB0002C25640D0A00000010B5031F4FF080742E
:102CC0001C601B1F21F001011960191F044B0B60D0
:102CD00014390A60091F6FF0020244380A6010BDFF
:102CE000412B0008D0E9013201699A60D0E9012343
:102CF0005A604A68824201D182684A6000220261B9
:102D00000868401E0860704700F108014FF0FF326C
:102D1000C0E90112C160016100210160704700211A
:102D20000161704730B50C68621C02D000F10802E6
:102D300002E0026904E01A4653681D68A542FAD908
:102D400053684B6099608A60516008610168491C52
:102D5000016030BD42684A6093688B609368596037
:102D6000916008610168491C01607047502080F340
:102D70001188BFF34F8FBFF36F8F09494868401C1C
:102D8000486001280AD10748006810F0FF0F05D0FD
:102D900040F2B91204A10FA0FFF7C6BB70470000B4
:102DA000A000002004ED00E02E2E5C2E2E5C46726A
:102DB000656552544F535C706F72745C5256445345
:102DC0005C41524D5F434D34465C706F72742E63AC
:102DD000000000004572726F723A25732C25640D55
:102DE0000A00000010B5084C606828B94FF4E07282
:102DF00006A111A0FFF798FB6068401E606001D13A
:102E000080F3118810BD0000A00000202E2E5C2E43
:102E10002E5C4672656552544F535C706F72745CE1
:102E2000525644535C41524D5F434D34465C706F83
:102E300072742E63000000004572726F723A25733F
:102E40002C25640D0A00000070B500282AD0164D0C
:102E5000A0F108046068E968084205D14FF4A07247
:102E600012A11CA0FFF760FB206828B140F24112BC
:102E70000EA118A0FFF758FB6068E968084211D05E
:102E80002268002A0ED18843606000F029F960684A
:102E90006968084468602046FFF71CFEBDE8704082
:102EA00000F0BABA70BD0000880000202E2E5C2E03
:102EB0002E5C4672656552544F535C706F72745C41
:102EC0004D656D4D616E675C686561705F342E6342
:102ED000000000004572726F723A25732C25640D54
:102EE0000A00000006484FF47A710068B0FBF1F167
:102EF0004FF0E020491E4161072101617047000049
:102F00000000002010B5040012D00E49096B29B151
:102F100040F2CF420CA113A0FFF706FB00F0E0F84F
:102F200000212046FFF76CFC00F076FA002807D15C
:102F300010494FF080500860BFF34F8FBFF36F8F81
:102F400010BD00004C0000202E2E5C2E2E5C467220
:102F5000656552544F535C7372635C7461736B7339
:102F60002E6300004572726F723A25732C25640D32
:102F70000A00000004ED00E070B50446FFF7F6FE1D
:102F8000234D04B92C68201DFFF7ACFE58B9E06A48
:102F9000204A00EB800152F8211021B90121814023
:102FA000286988432861A06A18B104F11800FFF766
:102FB00099FE686A401C68622868844207D1211D16
:102FC0001548FFF7C7FE6868401C686007E0A868FE
:102FD000401EA8602046FFF7DDFCFFF7A1FDFFF7CC
:102FE00001FF6869002812D0286884420FD1286B3D
:102FF00028B140F2654209A10FA0FFF795FA1249E6
:103000004FF080500860BFF34F8FBFF36F8F70BDDC
:103010004C0000207C950120389801202E2E5C2E3B
:103020002E5C4672656552544F535C7372635C74D8
:1030300061736B732E6300004572726F723A257371
:103040002C25640D0A00000004ED00E01CB51548B5
:103050000024CDE900402346802213A1144800F04B
:1030600029F901280AD0401C1BD102B040F2847219
:10307000BDE810400FA116A0FFF756BA502080F30C
:103080001188BFF34F8FBFF36F8F06484FF0FF31AA
:103090002C38816201214161C460BDE81C4000F010
:1030A00069B81CBD7800002049444C450000000070
:1030B000F52900082E2E5C2E2E5C46726565525452
:1030C0004F535C7372635C7461736B732E630000A7
:1030D0004572726F723A25732C25640D0A00000048
:1030E0000248016B491C0163704700004C0000203E
:1030F00070B5134D286B10B10120E86170BD002040
:10310000E86128690F4EB0FA80F0C0F11F0000EBB3
:10311000800456F8240028B940F6F6220AA111A02E
:10312000FFF702FA06EB840000F1080241684968E3
:103130004160914201D149684160C868286070BD12
:103140004C0000207C9501202E2E5C2E2E5C4672B9
:10315000656552544F535C7372635C7461736B7337
:103160002E6300004572726F723A25732C25640D30
:103170000A0000001CB5304C20683049884205D157
:1031800040F259122EA139A0FFF7CEF920682B4941
:10319000491E884205D14FF4AD7229A133A0FFF733
:1031A000C3F9364C20780190FF20207020788DF8EC
:1031B00000009DF800009DF8001000F0F00088422B
:1031C00005D040F273121EA128A0FFF7ADF99DF8BB
:1031D00000002B4A00F0500010700720906007E0BC
:1031E0009068401E90609DF8000040008DF800003F
:1031F0009DF800000006F3D4107A000200F4E060AD
:103200009060019820700C482030016841F47001F2
:103210000160016841F070410160FFF763FE00202A
:103220005060FCF7DBFF1748016841F04041016046
:10323000FCF7C4FF00201CBD00ED00E071C20F418F
:103240002E2E5C2E2E5C4672656552544F535C7078
:103250006F72745C525644535C41524D5F434D341F
:10326000465C706F72742E63000000004572726FCE
:10327000723A25732C25640D0A00000000E400E07A
:10328000A000002034EF00E010B5502080F311883A
:10329000BFF34F8FBFF36F8F00F046F818B10449AA
:1032A0004FF080500860002080F3118810BD0000AE
:1032B00004ED00E02DE9FF5F8346DDE90E879946C6
:1032C00016468A469000FFF76DFC05001AD04C2088
:1032D000FFF768FC040012D025630021CDE902410C
:1032E000CDE900874B46324651465846FFF796FBDC
:1032F0002046FFF7BDFA012004B0BDE8F09F284644
:10330000FFF7A2FD4FF0FF30F6E7000005484169E6
:1033100019B1006B18B100207047012070470220DE
:10332000704700004C0000202DE9F0412D4F002691
:10333000386B40B1B869401CB861F86900B101262A
:103340003046BDE8F081FD686D1CFD6011D1786BE1
:10335000006828B140F6D91223A12AA0FFF7E4F8AB
:10336000786BB96B7963B863386A401C3862FFF7D1
:10337000D7FBB86ADFF89C80854209D3786B006878
:1033800080B1786BC068C468606885420DD2B8624D
:103390003868C06A00EB800158F821000128CCD9B8
:1033A0000126CAE74FF0FF30F1E7201DFFF79AFC36
:1033B000A06A18B104F11800FFF794FCE06A01213B
:1033C0003A6981401143396100EB800108EB8100CB
:1033D000211DFFF7BFFCE06A3968C96A8842CDD376
:1033E0000126CBE74C0000202E2E5C2E2E5C467270
:1033F000656552544F535C7372635C7461736B7395
:103400002E6300004572726F723A25732C25640D8D
:103410000A0000007C9501202DE9F0472B4D002487
:103420002746286B28B94FF4FD6229A12FA0FFF78A
:103430007BF8FFF79BFC286B401E2863286BE8BBDA
:10344000A8682E490126C8B3A1F52A798846D8F87C
:103450000010E9B1D8F80C00C46804F11800FFF7B7
:1034600041FC201DFFF73EFCE06A2A6906FA00F1E4
:103470001143296100EB800109EB8100211DFFF759
:1034800069FCE06A2968C96A8842E0D3EE61DEE738
:103490000CB1FFF745FBAC693CB1FFF745FF00B14C
:1034A000EE61641EF9D10020A861E86930B11449C9
:1034B000012738070860BFF34F8F00E001E0BFF33A
:1034C0006F8FFFF78FFC3846BDE8F0874C00002077
:1034D0002E2E5C2E2E5C4672656552544F535C73E3
:1034E00072635C7461736B732E6300004572726F5C
:1034F000723A25732C25640D0A00000024980120DF
:1035000004ED00E00D0A20B5AB7364BFA8C4DAB5C2
:10351000C4D4ADCEC4BCFEB2BBBFC9BBD6B8B4A385
:10352000ACCAB5D1E9C7B0CEF1B1D8B1B8B7DD53A7
:1035300044BFA8C4DAB5C4D4ADCEC4BCFEA3A1A315
:10354000A1A3A10D0A000000CAB5D1E9BAF3BFC911
:10355000CDA8B9FDB5E7C4D4B8F1CABDBBAFBBF2C5
:10356000CAB9D3C35344BFA8CEC4BCFECFB5CDB3F4
:10357000B5C4C0FDB3CCBBD6B8B45344BFA8CEC409
:10358000BCFECFB5CDB30D0A0000000053696E67D5
:103590006C6520626C6F636B20B2E2CAD4CAA7B0BC
:1035A000DCA3ACC7EBC8B7B1A35344BFA8D5FDC8D3
:1035B000B7BDD3C8EBBFAAB7A2B0E5A3ACBBF2BB03
:1035C000BBD2BBD5C55344BFA8B2E2CAD4A3A10A9B
:1035D00000000000CEC2DCB0CCE1CABEA3BAB2BFCC
:1035E000B7D65344BFA8B2BBD6A7B3D6B2C1B3FDBA
:1035F000B2E2CAD4A3ACC8F45344BFA8C4DCCDA87B
:10360000B9FDCFC2C3E6B5C473696E676C65B6C158
:10361000D0B4B2E2CAD4A3ACBCB4B1EDCABE534478
:10362000BFA8C4DCB9BBD5FDB3A3CAB9D3C3A1A39A
:103630000A0000004D756C746920626C6F636B202A
:10364000B2E2CAD4CAA7B0DCA3ACC7EBC8B7B1A377
:103650005344BFA8D5FDC8B7BDD3C8EBBFAAB7A216
:10366000B0E5A3ACBBF2BBBBD2BBD5C55344BFA82E
:10367000B2E2CAD4A3A100009836000800000020DE
:10368000B00000004825000848370008B0000020BE
:10369000B0DB010058250008007A030A0000000092
:1036A00000000000010203040607080900000000F2
:1036B00001020304010203040607080900000000D8
:1036C00000000000000000000000000000000000FA
:1036D00000000000000000000000000000000000EA
:1036E00000000000000000000000000000000000DA
:1036F00000000000000000000000000000000000CA
:1037000000000000000000000000000000000000B9
:1037100000000000000000000000000000000000A9
:103720000000000000000000000000000000000099
:10373000000000000000000000000000AAAAAAAAE1
:08374000000000000000000081
:040000050800018965
:00000001FF
